:100000000C94FE010C9410020C9410020C94112715
:100010000C943F1D0C9410020C9410020C941002CE
:100020000C9410020C94A5250C9410020C946816E4
:100030000C9410020C9410020C9410020C941002F8
:100040000C9421160C9410020C947B1A0C94101B27
:100050000C9410020C94F7260C9410020C941002CD
:100060000C9410020C941002E8037B0F7B0FF20338
:10007000FD03080413047B0F17047B0F25047B0F7B
:100080002F04390443047B0F7B0F7B0F5304600460
:100090006D0425302B302E30313036303E30463036
:1000A000E130E130E130533056305F306830E130DC
:1000B000E130E130E130E130E13074307E308A30DF
:1000C000923095309E30A730AD30E130E130B6301F
:1000D000BF30CA30C41AC61AFF1AFF1AFF1AFF1A15
:1000E000FF1AFF1AFF1AFF1AFF1AFF1ACC1ACE1AAC
:1000F000D01AD21AD41AD61AD81ADA1AFF1ADE1A55
:10010000E01AE21AE41AE61AE81AFF1AEA1A084A8A
:10011000D73B3BCE016E84BCBFFDC12F3D6C74311B
:100120009ABD56833DDA3D00C77F11BED9E4BB4C72
:100130003E916BAAAABE000000803F05A84CCDB23C
:10014000D44EB93836A9020C50B9918688083CA61D
:10015000AAAA2ABE000000803F00536C6565706942
:100160006E6700526573746F72696E672073706991
:100170006E646C6500526573746F72696E6720649B
:10018000656661756C74730050676D20456E640020
:10019000436865636B204C696D69747300436865DF
:1001A000636B20446F6F720044697361626C6564B5
:1001B00000456E61626C65640043617574696F6EC1
:1001C0003A20556E6C6F636B656400272448277C6A
:1001D0002724582720746F20756E6C6F636B005254
:1001E0006573657420746F20636F6E74696E7565D6
:1001F000005B4D53473A000D0A4772626C20312E66
:100200003168205B27242720666F722068656C7038
:100210005D0D0A00244E005B4F50543A005B56457A
:10022000523A312E31682E32303139303833303A4B
:10023000005B544C4F3A005B4739323A0033300090
:100240003238005B4700204700204D00205300203B
:10025000460020540033382E005B47433A47005B8A
:10026000484C503A24242024232024472024492089
:10027000244E2024783D76616C20244E783D6C69B4
:100280006E6520244A3D6C696E652024534C5020D5
:100290002443202458202448207E2021203F20630E
:1002A00074726C2D785D0D0A00414C41524D3A003C
:1002B000207D0066616C73650074727565002C208A
:1002C000224152435F4F4B223A200066616C7365B6
:1002D0000074727565002C2022494E5F4D4F5449C1
:1002E0004F4E223A20002C2022414443223A200043
:1002F000207D2C202246454544223A20002C227A9B
:10030000223A20002C2279223A2000207D2C202223
:10031000574353223A207B202278223A20002C2275
:100320007A223A20002C2279223A20002C20224DD9
:100330004353223A207B202278223A200022535431
:1003400041545553223A2022556E6B6E6F776E22C0
:100350000022535441545553223A2022486F6C6472
:10036000220022535441545553223A20224A6F67A7
:10037000220022535441545553223A202252756E82
:10038000220022535441545553223A202249646C8E
:10039000652200207B20000D0A005B5052423A008B
:1003A0006572726F723A0000007A4300007A43006F
:1003B000007A430000FA430000FA430000FA4300C9
:1003C000A00C4700A00C4700A00C47000048C30049
:1003D0000048C3000048C30A000019010AD7233CA3
:1003E0006F12033B00007A44000000000000000090
:1003F000C8410000FA43FA000000803F11241FBEEC
:10040000CFEFD8E0DEBFCDBF27E0A0E0B1E001C074
:100410001D92A83EB207E1F70E94192B0C942E3DC5
:100420000C9400002F923F924F925F926F927F92B6
:100430008F929F92AF92BF92CF92DF92EF92FF92F4
:100440000F931F93CF93DF93CDB7DEB7CA54D10973
:100450000FB6F894DEBF0FBECDBF8AE3E1ECF1E04A
:10046000DF011D928A95E9F78BE0E1E8F1E0A2EC6B
:10047000B1E001900D928A95E1F78091980784325E
:1004800011F00C949C0F81E08093C2011092C30183
:1004900083E08A8FB1E0BBA3212C312C1CA61BA6C4
:1004A00010E01B8E1F8EEE24E394F12CEAE0AE2EBA
:1004B000B12CF1E68F2EF3E09F2E8A8DE82FF0E02D
:1004C000E856F84FD080DD2009F437C29FEB9D0D30
:1004D0009A3110F00C946B0F8F5F8A8FBE016A5EA9
:1004E0007F4FCE014A960E94652A882311F40C940E
:1004F0006D0F4E885F88688C798CC301B2010E94B1
:10050000993C0E94D739062F70E080E090E00E946D
:10051000083A9B01AC01C301B2010E945E3820E0A1
:1005200030E048EC52E40E94B63B0E94233C0E941B
:10053000D739CB01E7E4DE1629F0FDE4DF1609F434
:10054000EAC035C1083209F4C6C020F5043168F4A8
:10055000013108F08AC0043009F452C008F464C0C4
:100560000A3009F445C00C947B0F0C3109F440C0EB
:1005700050F4063110F00C947B0F25E1201B2093E2
:10058000C40126E0ADC00E3199F1063209F44CC029
:100590000C947B0F0D3309F498C0A8F4053381F156
:1005A00040F40B3209F47AC0013309F477C00C949B
:1005B0007B0F0C3310F00C947B0F6AEC600F609390
:1005C000C80129E08DC00C3538F40A3508F053C055
:1005D000003581F10C947B0F0C3551F00F3510F084
:1005E0000C947B0F2EE5201B2093C30125E078C0DF
:1005F000009731F42F8D21110C946F0F31E03F8F54
:100600000093C101202F2D7F2C3119F00C3509F0FA
:1006100064C0009721F00A9711F00C947B0F600FD3
:100620006093C10120E061C04F8D41110C946F0FA8
:10063000A2E0AF8F0093C201063209F050C08431AE
:10064000910559F08E31910541F08832910529F0DC
:100650008233910511F00C947B0FB5010E94CB3CC5
:1006600066576093C20121E040C06FEE600F609357
:10067000C60122E035C0892B31F466EA600F609331
:10068000C50123E032C06A30710511F00C947B0F74
:100690000A3511F40C947B0F24E027C0BF8DB111F3
:1006A0000C946F0F013331F41092C70128E0E3E09E
:1006B000EF8F1BC00A9711F00C947B0FF1E0F093C1
:1006C000C70128E033E03F8F10C0892B11F00C9454
:1006D0007B0F2AE00AC027E003C020E001C021E030
:1006E000892B19F087E10C94A30FC70102C0880F72
:1006F000991F2A95E2F72BA53CA528233923232B04
:1007000019F085E10C94A30FABA5BCA5A82BB92BC0
:10071000BCA7ABA7D2CE892B29F7063018F403303B
:1007200058F016C0083010F40C947B0F0A30F0F02B
:100730000E3159F00C947B0F002319F0013011F1A8
:1007400004C0B3E0B093C9011DC00093C9011AC031
:10075000043021F0053031F080E101C080E2809367
:10076000CB0102C01092CB018CE00DC0093031F0FA
:100770008091CA0180648093CA0102C01092CA01AC
:100780008DE001C08BE0F70102C0EE0FFF1F8A95DC
:10079000E2F72BA53CA52E233F23232B09F0B1CF55
:1007A0002BA53CA52E2B3F2B3CA72BA786CE8D2D12
:1007B000DD0C990BAA0BBB0BFC01E654F109E531EA
:1007C000F10510F00C947B0FEC5CFF4F0C94013D95
:1007D0004092CD015092CE016092CF017092D00133
:1007E00080E087C04092D1015092D2016092D30143
:1007F0007092D401116081E07CC04092D50150928A
:10080000D6016092D7017092D801126082E071C067
:100810004092D9015092DA016092DB017092DC01C2
:10082000146083E066C00093DD0184E062C0C30110
:10083000B2010E94D0396093DE017093DF01809392
:10084000E0019093E10185E054C04092E2015092B2
:10085000E3016092E4017092E50186E04AC04092B3
:10086000E6015092E7016092E8017092E90187E0A9
:1008700040C04092EA015092EB016092EC0170920C
:10088000ED0188E036C020E030E04FE753E4C301DB
:10089000B2010E94763B181614F40C94710F009369
:1008A000EE0189E026C04092EF015092F001609283
:1008B000F1017092F2013B8D31603B8F8AE019C0EB
:1008C0004092F3015092F4016092F5017092F601AA
:1008D0004B8D42604B8F8BE00CC04092F7015092E1
:1008E000F8016092F9017092FA018B8D84608B8F10
:1008F0008CE06701082E02C0CC0CDD1C0A94E2F7E4
:10090000960122213321232B11F00C94730FD40173
:1009100002C0B595A7958A95E2F7A0FF0BC020E02D
:1009200030E0A901C301B2010E94543987FF02C01F
:100930000C94750F2C283D28C0CDBB8DBB2329F00E
:10094000EF8DE11102C0F2E0FF8F25FE0FC0809114
:10095000DE019091DF01A091E001B091E1018138C9
:100960009649A849B10514F00C94770F3BA13323A5
:1009700029F020FC02C00C94810F18C08091C301A3
:10098000813071F44F8D4230E1F58091C2018035A4
:10099000C1F18823B1F120FC02C00C94810F31C059
:1009A0008091820181112DC020FE1BC08091C40165
:1009B000813039F523E333E34BEC51E46091CD0111
:1009C0007091CE018091CF019091D0010E94B63BF1
:1009D0006093CD017093CE018093CF019093D001AD
:1009E00010C08091900190919101A0919201B091DD
:1009F00093018093CD019093CE01A093CF01B0934A
:100A0000D00130FC10C080918C0190918D01A0919B
:100A10008E01B0918F018093EA019093EB01A09336
:100A2000EC01B093ED018091C101843039F426FCD2
:100A300003C08CE10C94A30FE89426F88091C601C2
:100A4000882369F0813029F48FAF1DAE92E09BAF0F
:100A50000BC01FAEA2E0ADAFB1E0BBAF05C0E2E09E
:100A6000EFAFF1E0FDAF1BAE8091C401813021F00A
:100A70002F8D2330C9F52FC061ECC62E61E0D62E34
:100A8000E12CF12C3B8DA32EB12CC5010E2C02C004
:100A9000959587950A94E2F780FF12C023E333E32C
:100AA0004BEC51E4D6019E966D917D918D919C9178
:100AB000D1970E94B63BF60166A777A780AB91ABB2
:100AC000FFEFEF1AFF0A24E0C20ED11C33E0E31659
:100AD000F104D9F6CDCF8091C701813029F44B8D37
:100AE000443011F00C94790F8CE0E5EAF1E0DE017E
:100AF000119601900D928A95E1F78BA59CA591FD29
:100B000008C00091C1010A30C9F00C3509F4B3C026
:100B10001EC18091C801873018F08DE10C94A30F9D
:100B200090918701891769F3BE016F5F7F4F0E9423
:100B3000FD19882311F40C948F0FE3CF9B8D911135
:100B400003C08AE10C94A30FC10180759927892BFA
:100B500009F46FCF6091E2017091E3018091E401AB
:100B60009091E5010E94993C0E94D7396730A8F620
:100B70008091DD01843141F0823011F00C947B0FC3
:100B800027FE02C00C947B0FAFEA2A22662319F0DD
:100B9000615069A703C0B091C801B9A761ED71E0C8
:100BA00089A50E94FD19882311F40C948F0F0091E0
:100BB000DD014090BD015090BE016090BF0170907A
:100BC000C00141ECE42E41E0F42E51E8A52E51E0A5
:100BD000B52EC12CD12CEB8D8E2E912CC4010C2C5A
:100BE00002C0959587950A94E2F780FF35C00431DD
:100BF00051F5D501D0962D913D914D915C91D397B2
:100C000058966D917D918D919C915B970E945E3875
:100C1000F70126A537A540A951A90E945E38D70142
:100C200050966D937D938D939C935397B2E0CB1226
:100C300013C0A30192010E945E38F701608B718B93
:100C4000828B938B09C0F70186A597A5A0A9B1A9AE
:100C5000808B918BA28BB38BFFEFCF1ADF0A24E03E
:100C6000E20EF11C34E0A30EB11C43E0C416D10423
:100C700009F0B4CF3FC18B8D882309F462CF409037
:100C8000BD015090BE016090BF017090C00121E88D
:100C9000822E21E0922EDE0111967D0131ECC32ED1
:100CA00031E0D32EA12CB12CE82FF0E0F8A7EFA370
:100CB0008FA198A50A2C02C0959587950A94E2F712
:100CC00080FF29C0D7012D913D914D915C91F40198
:100CD000608D718D828D938D0E945E38D6019E96B7
:100CE0002D913D914D915C91D1970E945E38F60116
:100CF00066A777A780AB91ABF2E0AF1216C0A30155
:100D000092010E945E38D6019E966D937D938D93DD
:100D10009C93D1970AC0F40180A991A9A2A9B3A973
:100D2000F60186A797A7A0ABB1ABFFEFAF1ABF0A3A
:100D300024E0820E911C34E0E30EF11C44E0C40E6A
:100D4000D11C83E0A816B10409F0B2CFD2C09F8DA8
:100D5000933069F40E3109F494C0053309F4C3C02B
:100D60000C3109F0C6C061ED71E086E08DC0AB8D3D
:100D7000AA2381F3B091C501BFA34090BD0150905B
:100D8000BE016090BF017090C00181E8A82E81E093
:100D9000B82E91ECE92E91E0F92EFE0131964F012B
:100DA000C12CD12C2A2F30E03AA729A789A59AA5D2
:100DB0000C2C02C0959587950A94E2F780FD0BC034
:100DC000F501808D918DA28DB38DF70186A797A730
:100DD000A0ABB1AB44C0053309F441C0FFA1F11190
:100DE0002BC0D501D0962D913D914D915C91D3971B
:100DF000F40160817181828193810E945F38D70103
:100E00009E962D913D914D915C91D1970E945F38B6
:100E1000F70166A777A780AB91ABF2E0CF121FC0B6
:100E2000A30192010E945F38D7019E966D937D9336
:100E30008D939C93D19713C0F501208D318D428DF8
:100E4000538DD7019E966D917D918D919C91D197F7
:100E50000E945F38F70166A777A780AB91ABFFEFE1
:100E6000CF1ADF0A24E0A20EB11C34E0E30EF11C1D
:100E700044E0840E911C83E0C816D10409F096CF9B
:100E800069CF61ED71E087E00E94FD19882311F4BC
:100E90000C948F0F9B8D911103C019A61F8E2AC031
:100EA000A1E8B1E0E1ECF1E080E090E04B8D242F8F
:100EB00030E0A901082E02C0559547950A94E2F743
:100EC00040FD0AC058964D915D916D917C915B9764
:100ED000408B518B628B738B0196149634968330C2
:100EE000910539F706C08091C201823010F00C9450
:100EF0007D0F19A68091C2018FA3803529F49B8DA7
:100F000091110C947F0F7AC2AF8DA23009F076C296
:100F1000BFA1B11104C0EB8DE11170C22AC020E065
:100F200030E0A9016091CD017091CE018091CF0197
:100F30009091D0010E945439882309F4E2C7FFA19F
:100F4000FC3809F445C240F4F230A9F0F330B1F0B6
:100F5000F13009F053C20AC02FA12E3809F438C26B
:100F600008F433C22F3809F430C248C23B8D311126
:100F700045C21F8E43C24BA144604BA38B8D882377
:100F800009F4DFCDBBADAB2FB0E0B8ABAFA7FDAD83
:100F9000EF2FF0E0FCABEBAB81E090E07C010BAC21
:100FA00002C0EE0CFF1C0A94E2F70DAC02C0880FE1
:100FB000991F0A94E2F7E82AF92A2B8D822F90E0F4
:100FC0008E219F21892B09F49EC7FD01EE0FFF1F83
:100FD000EE0FFF1FEF53FE4FAA0FBB1FAA0FBB1F41
:100FE000A756BE4F2D913D914D915C9166A577A579
:100FF00080A991A90E945E382B013C01EBA9FCA9B4
:10100000EE0FFF1FEE0FFF1FEF53FE4FABA9BCA962
:10101000AA0FBB1FAA0FBB1FA756BE4F2D913D9114
:101020004D915C9166A577A580A991A90E945E3833
:101030004B015C01610130E8C322DD2427FEF5C0CD
:10104000E89427F84CE050E06FEE71E089E991E018
:101050000E94213D892B11F481E275C78091C40162
:101060008130B1F423E333E34BEC51E46091E601CA
:101070007091E7018091E8019091E9010E94B63BEF
:101080006093E6017093E7018093E8019093E90192
:101090008091E6019091E701A091E801B091E9010A
:1010A0008FAB98AFA9AFBAAFA3019201C301B20150
:1010B0000E94B63B27966CAF7DAF8EAF9FAF279750
:1010C000A5019401C501B4010E94B63B2B966CAFFB
:1010D0007DAF8EAF9FAF2B9720E030E040E850E42B
:1010E0006FA978AD89AD9AAD0E94B63B2FA938ADF6
:1010F00049AD5AAD0E94B63B27962CAD3DAD4EADE5
:101100005FAD27970E945E382B962CAD3DAD4EAD5E
:101110005FAD2B970E945E386B017C0120E030E0D0
:10112000A9010E94543987FDF0C6C701B6010E948B
:10113000553C6B017C012B962CAD3DAD4EAD5FADAA
:101140002B9727966CAD7DAD8EAD9FAD27970E94F6
:101150005F380E94553C9B01AC01C701B601905815
:101160000E945E396B017C019FA1933021F4F7FA54
:10117000F094F7F8F09420E030E0A9016FA978AD81
:1011800089AD9AAD0E94543987FF11C0F7FAF094E7
:10119000F7F8F0948FA998ADA9ADBAADB058809387
:1011A000E6019093E701A093E801B093E9010FA550
:1011B00018A9000F111F000F111F0F521E4FA7017A
:1011C0009601C501B4010E94B63B9B01AC01C3016D
:1011D000B2010E945E3820E030E040E05FE30E9410
:1011E000B63BD8016D937D938D939C9313970BA978
:1011F0001CA9000F111F000F111F0F521E4FA70136
:101200009601C301B2010E94B63BA50194010E9460
:101210005F3820E030E040E05FE30E94B63BF80139
:101220006083718382839383E9C0212F30E038AFDC
:101230002FABE222F322EF2809F469C631EF232213
:101240008091C401813009F47BC0EFA5F8A9EE0FAD
:10125000FF1FEE0FFF1FEF52FE4FC080D180E280D4
:10126000F380A7019601C301B2010E945E382B01F1
:101270003C01EBA9FCA9EE0FFF1FEE0FFF1FEF5281
:10128000FE4F80819181A281B3818FA798ABA9ABDA
:10129000BAAB9C01AD01C501B4010E945E384B019F
:1012A0005C01A3019201C301B2010E94B63B2B0174
:1012B0003C01A5019401C501B4010E94B63B9B010C
:1012C000AC01C301B2010E945F380E94553C4B0142
:1012D0005C01A7019601C701B6010E94B63B6B01F4
:1012E0007C012FA538A949A95AA9CA01B9010E94B0
:1012F000B63B9B01AC01C701B6010E945F380E945A
:10130000553C6B017C016093E6017093E70180938B
:10131000E8019093E9019B01AC01C501B4010E9471
:101320005E384B015C01E894B7F82AE037ED43EAF8
:101330005BE3C501B4010E94763B18164CF15EC018
:1013400001EC11E08FA998AD0C2C02C09595879502
:101350000A94E2F780FF12C023E333E34BEC51E43D
:10136000D80150966D917D918D919C9153970E94DB
:10137000B63BF801608B718B828B938BFFEFCF1A9A
:10138000DF0A0C5F1F4F23E0C216D104D9F65DCFF0
:1013900020E030E040E05FE3C501B4010E94763B0D
:1013A00018160CF459CE2FE632E143E85AE3C70190
:1013B000B6010E94B63B9B01AC01C501B4010E947D
:1013C000763B18160CF448CE19C03BA130613BA304
:1013D0008FA18E58823018F44BA148604BA38B8D9F
:1013E000882309F4AECB4CE050E06FEE71E089E960
:1013F00091E00E94213D892B09F42ECE2BA1217072
:101400009BA190FF03C0C1018E7D03C0C1018E7DF1
:101410009C7FAF8DA111937E892B09F07AC58E0137
:10142000035F1F4F89E0F80111928A95E9F72223A3
:1014300009F44BC08BA59CA5867B892B09F06BC555
:101440008091C101853311F0811165C580918C01B6
:1014500090918D01A0918E01B0918F01898B9A8B13
:10146000AB8BBC8B90918A0180918901892B409133
:10147000CD015091CE016091CF017091D0014D8787
:101480005E876F87788B84608D8B8091710185FF7B
:1014900006C08FEE91E00E94883181113EC5B801EF
:1014A0008FEE91E00E94D53780911A01811139C5E4
:1014B0000E94A728892B09F434C580E280931A0181
:1014C0000E94861D0E94D2182CC580917101F09057
:1014D0008A0181FF26C08FA18150833018F0FBA1C3
:1014E000F064FBA32B8D222339F03F8D323021F4A1
:1014F0004BA140684BA315C080E1F81212C0809147
:10150000810181509BA19074833030F4992349F07C
:101510009BA190629BA305C0911103C0ABA1A062E7
:10152000ABA38091DE019091DF01A091E001B09129
:10153000E1018093950190939601A0939701B09358
:1015400098018091C30180938201882311F088E083
:101550008D8B8091CD019091CE01A091CF01B09162
:10156000D0018093900190939101A0939201B09348
:1015700093018D879E87AF87B88B8090EA0190900A
:10158000EB01A090EC01B090ED01A50194016091F8
:101590008C0170918D0180918E0190918F010E943C
:1015A0005439BBA1B074EB2E811103C0EBA1E5FF50
:1015B00020C0FF2071F0FBA1F7FD0BC0EE2021F051
:1015C00040E050E0BA0102C0B501A4018F2D0E9495
:1015D00040318091EA019091EB01A091EC01B09132
:1015E000ED0180938C0190938D01A0938E01B093B7
:1015F0008F01E1100CC080918C0190918D01A09120
:101600008E01B0918F01898B9A8BAB8BBC8B8091B3
:10161000EE01809394018091CB0190918A019817FB
:1016200051F049895A896B897C890E9440318091A7
:10163000CB0180938A019D8980918A01892B8D8BB2
:10164000F090CA01809189018F1569F080911A018B
:10165000823029F00E94D9158F2D0E942828809170
:10166000CA01809389019D8980918901892B8D8B85
:101670008091C101843099F4C090E201D090E301DF
:10168000E090E401F090E50180911A01823039F098
:101690000E94D91540E0C701B6010E94152A809129
:1016A000C601809385018091C401809383012F8DB1
:1016B000233071F58091C70180938601811108C0A4
:1016C0001092F7011092F8011092F9011092FA01AC
:1016D000C090F701D090F801E090F901F090FA0184
:1016E000A70196016091BD017091BE018091BF017B
:1016F0009091C0010E945439882351F0C092BD01DD
:10170000D092BE01E092BF01F092C0010E94C331AD
:101710008091C80190918701981769F080938701A3
:101720008CE0FE013196A5EAB1E001900D928A9518
:10173000E1F70E94C3318091C501809384018091BB
:10174000C1018632F1F138F48C3109F18E31F9F0B2
:101750008A3069F04FC08C35D1F1863609F441C02A
:10176000883209F047C069E971E087E02DC061ED7A
:1017700071E089A50E94E9198091870139A5381384
:1017800039C08CE0E1EDF1E0A5EAB1E025C08D893A
:1017900081608D8B4F8D442329F0B8018FEE91E04D
:1017A0000E94D537B80181ED91E00E94D5378CE0D9
:1017B000E1EDF1E0A9E9B1E001900D928A95E1F740
:1017C00019C069E971E086E00E94E91913C08CE054
:1017D000EFEEF1E0A1EBB1E001900D928A95E1F717
:1017E00007C08CE0E1EBF1E0DF011D928A95E9F79B
:1017F0000E94C3318091C20180938101803509F438
:101800001CC3BF8DB23009F018C3813021F4BE0172
:10181000635F7F4F06C0811109C08D8981608D8B08
:10182000B8018FEE91E00E94D537FEC2825082301F
:1018300008F093C28091E6019091E701A091E80140
:10184000B091E9018F8F98A3A9A3BAA3ABAD94E09F
:10185000A99F70011124F701E756FE4FF8A7EFA3E7
:1018600097012F523E4F3AA729A7D9014D905D907D
:101870006D907C902081318142815381C301B201FE
:101880000E945F386BA77CA78DA79EA7EDADB4E043
:10189000EB9F80011124980127563E4F3CAF2BAFA0
:1018A000C8018F529E4F9EAF8DAFDC018D909D90F1
:1018B000AD90BC90F9012081318142815381C501F5
:1018C000B4010E945F386FA778AB89AB9AAB77FA07
:1018D000709477F87094D501C401B0588B8F9C8FA9
:1018E000AD8FBE8FF701E151FE4F2BA53CA54DA555
:1018F0005EA560817181828193810E945E386B0157
:101900007C01F801E151FE4F2FA538A949A95AA938
:1019100060817181828193810E945E384B015C01FC
:10192000A7019601C301B2010E94B63B6BAB7CAB31
:101930008DAB9EABA50194016B8D7C8D8D8D9E8DA5
:101940000E94B63B9B01AC016BA97CA98DA99EA905
:101950000E945F386BAB7CAB8DAB9EABA501940155
:10196000C301B2010E94B63B4B015C01A701960185
:101970006B8D7C8D8D8D9E8D0E94B63B9B01AC0145
:10198000C501B4010E945E382BA93CA94DA95EA9EE
:101990000E94DE386B017C019BA192FF13C02DEBEE
:1019A00037E346E055EBC701B6010E94763B87FD61
:1019B0001DC02BED3FE049EC50E4C701B6010E9489
:1019C0005E3812C02DEB37E346E055E3C701B601A0
:1019D0000E945439181654F02BED3FE049EC50E4C6
:1019E000C701B6010E945F386B017C0180906501E0
:1019F00090906601A0906701B09068012F8D38A18A
:101A000049A15AA1CA01B9010E945F38A5019401F8
:101A10000E945E38A50194010E94B63B0E94553C8D
:101A20004B015C0120E030E040E05FE3C701B6011C
:101A30000E94B63B2F8D38A149A15AA10E94B63B06
:101A40009F77A50194010E945E390E94433A0E944B
:101A5000D7397CAB6BABDB01AB2B09F4D8CE1D893E
:101A60004B01A12CB12C13FF12C0C501B4010E947F
:101A7000063A9B01AC016D857E858F8598890E9411
:101A8000B63B6D877E878F87988B177F1D8BC5012F
:101A9000B4010E94063A4B015C019B01AC01C701F5
:101AA000B6010E945E396BA37CA38DA39EA3EFAD0C
:101AB000B4E0EB9FC00111248C0107561E4FFC01BE
:101AC000E151FE4FD8012D913D914D915C91608186
:101AD0007181828193810E945E38A50194010E94E8
:101AE0005E3927966CAF7DAF8EAF9FAF27972BA146
:101AF0003CA14DA15EA1CA01B9010E94B63B9B0168
:101B0000AC0160E070E080E090E40E945E386B0120
:101B10007C012BEA3AEA4AE25EE36BA17CA18DA14B
:101B20009EA10E94B63B4B015C0120E030E040E802
:101B300050E4C701B6010E945F389B01AC01C501AA
:101B4000B4010E94B63B6FAB78AF89AF9AAF20E08B
:101B500030E040E05FE3C701B6010E94B63B239648
:101B60006CAF7DAF8EAF9FAF23971F8E222423943F
:101B7000312CEBA9FCA9E215F30509F448CEBF8D81
:101B8000BC3008F044C02B8D3C8D4D8D5E8D23966E
:101B90006CAD7DAD8EAD9FAD23970E94B63B6B01C2
:101BA0007C01A30192016FA978AD89AD9AAD0E9425
:101BB000B63BA70196010E945F387B016C01A3012F
:101BC000920123966CAD7DAD8EAD9FAD23970E94A3
:101BD000B63B4B015C012B8D3C8D4D8D5E8D6FA90D
:101BE00078AD89AD9AAD0E94B63B9B01AC01C501B1
:101BF000B4010E945E382B013C01EF8DEF5FEF8F47
:101C0000470156018B8E9C8EAD8EBE8E65C0B10194
:101C100080E090E00E94063A2BA13CA14DA15EA17C
:101C20000E94B63B6B017C010E9459396B8F7C8FFF
:101C30008D8F9E8FC701B6010E94473C4B015C010E
:101C4000A9A5BAA5CD90DD90ED90FC90F7FAF0949F
:101C5000F7F8F094ADADBEAD8D919D910D90BC9116
:101C6000A02D8F8F98A3A9A3BAA3A70196016B8D6E
:101C70007C8D8D8D9E8D0E94B63B2B013C012F8D5E
:101C800038A149A15AA1C501B4010E94B63B9B01EC
:101C9000AC01C301B2010E945F382B013C01A701D6
:101CA0009601C501B4010E94B63B6B017C012F8DEA
:101CB00038A149A15AA16B8D7C8D8D8D9E8D0E947E
:101CC000B63B9B01AC01C701B6010E945E386B8F29
:101CD0007C8F8D8F9E8F1F8EA30192016BA57CA59B
:101CE0008DA59EA50E945F38EFA1F8A56083718342
:101CF000828393832B8D3C8D4D8D5E8D6FA578A94E
:101D000089A99AA90E945F38ABADBCAD6D937D9354
:101D10008D939C93139727962CAD3DAD4EAD5FAD43
:101D20002797F80160817181828193810E945F38D9
:101D3000D8016D937D938D939C931397BE01635F40
:101D40007F4F89E991E00E94D53780911B01811175
:101D50006BC0BFEF2B1A3B0A0CCF8D8984608D8B33
:101D600080911A01823009F45FC00E94D9158091D8
:101D70001B01811162C0FBA1F071FF2E10921F01A7
:101D80002BA123FB882780F90E94C50F86B18072A2
:101D900090910001891749F084E00E94EA1C0E949A
:101DA000C51480E00E94C50F48C0B8018FEE91E0D5
:101DB0000E94D53781E08093190182E00E94FA1CCD
:101DC0000E94C51480911B01811137C080911A01B6
:101DD0008111F6CF80911901813081F4FF2051F0FB
:101DE0008CE0E1E0F1E0ADE0B1E001900D928A9588
:101DF000E1F707C085E00E94EA1C03C081E0809300
:101E00001F011092190180E00E94C50F0E94C514A5
:101E10000E9463250E94B7280E9404110E945E312F
:101E200080911F0181118CC08CE0EFEEF1E0A9E9F7
:101E3000B1E001900D928A95E1F78091C9018093FC
:101E40008801882309F47FC00E94D91580918801F8
:101E500090911A01833041F49230D1F188E00E94D0
:101E6000FA1C0E94C51434C081E080938101109255
:101E700085011092840110928201109287011092C4
:101E80008A011092890184E68093220180932301C4
:101E900080932401923091F065EA71E080E00E9425
:101EA000FD198823E1F10E94C33140E050E0BA01FE
:101EB00080E00E948E1980E00E94282881EF91E046
:101EC0000E94B81088E891E00E94B8100E94FF10AC
:101ED000109288012FC081E036C082E034C088E1D2
:101EE00032C086E230C089E12EC084E02CC08BE194
:101EF0002AC085E228C084E126C08EE124C08FE19B
:101F000022C086E120C080E21EC082E21CC083E2C3
:101F10001AC084E218C080E116C08FE014C087E0C8
:101F200012C08CE0EFEEF1E0A9E9B1E001900D9272
:101F30008A95E1F780E007C01A8E1BA20C944C0230
:101F40000E9477277ACFC65BDF4F0FB6F894DEBFCB
:101F50000FBECDBFDF91CF911F910F91FF90EF90FA
:101F6000DF90CF90BF90AF909F908F907F906F90B9
:101F70005F904F903F902F9008950E94A728892B43
:101F800019F082E00C94FA1C0895109200019091CF
:101F9000710197FD03C090E290930001882331F016
:101FA0009091000180E289278093000108958F922B
:101FB0009F92AF92BF92CF92DF92EF92FF920F93D8
:101FC0001F93CF93DF93CDB7DEB72D970FB6F8945D
:101FD000DEBF0FBECDBF6B017C01042F20E030E0DF
:101FE000A9010E94543987FF07C08DE20E943A1B65
:101FF000F7FAF094F7F8F094102F123060F020E028
:1020000030E048EC52E4C701B6010E94B63B6B01D8
:102010007C011250F2CF00FF0AC020E030E040E225
:1020200051E4C701B6010E94B63B6B017C0120E080
:1020300030E040E05FE3C701B6010E945F380E94D4
:10204000D03910E03AE0832E912CA12CB12C6115EF
:1020500071058105910591F0EE24E394F12CEC0ECD
:10206000FD1EE10EF11CA50194010E94DF3C605DA4
:10207000F7016083B901CA011F5FE9CF80E3101740
:1020800048F4E1E0F0E0EC0FFD1FE10FF11D80836B
:102090001F5FF5CF101313C0FE01E10FF11D80E3A8
:1020A00081831F5F0CC0101303C08EE20E943A1B95
:1020B000FE01E10FF11D80810E943A1B11501111A8
:1020C000F2CF2D960FB6F894DEBF0FBECDBFDF91D5
:1020D000CF911F910F91FF90EF90DF90CF90BF9025
:1020E000AF909F908F9008952091710120FF08C0BC
:1020F0002BE832E441E25DE30E94B63B41E001C0DF
:1021000040E00C94D70F2091710120FF08C02BE80C
:1021100032E441E25DE30E94B63B44E001C043E0AB
:102120000C94D70FCF93DF93843630F06AE00E948F
:10213000BF3CC0E3C90F03C0C0E08A3030F06AE0A2
:102140000E94BF3CD0E3D90F01C0D0E0805D0E9467
:102150003A1BDD2319F08D2F0E943A1BCC2329F066
:102160008C2FDF91CF910C943A1BDF91CF91089582
:10217000CF93DF93FC018491EF012196882321F016
:102180000E943A1BFE01F7CFDF91CF91089587E9B6
:1021900093E00C94B810CF92DF92EF92FF92CF931E
:1021A000DF93D82F6A017B01C22F84E20E943A1B81
:1021B0008D2F0E9492108DE30E943A1B4C2FC70175
:1021C000B6010E94D70FDF91CF91FF90EF90DF9083
:1021D000CF900C94C710CF93DF93D82FC62F84E2F3
:1021E0000E943A1B8D2F0E9492108DE30E943A1B91
:1021F0008C2F0E949210DF91CF910C94C7108DE527
:102200000E943A1B0C94C710E1E0F1E0A5E1B2E0B6
:1022100041915191619171914D935D936D937D9336
:1022200081E0ED30F807A1F708953F924F925F9259
:102230006F927F928F929F92AF92BF92CF92DF92D6
:10224000EF92FF920F931F93CF93DF93CDB7DEB73B
:10225000AE970FB6F894DEBF0FBECDBF10918F07BB
:10226000112391F181E080931A0189EA92E00E94A2
:10227000B810812F0E9492100E94C71085EF91E044
:10228000019739F0EFE9FFE03197F1F700C0000066
:10229000F7CF1150123030F08FB7F89410928F07AB
:1022A0008FBF12C081EF91E00E94B8108FED91E0D6
:1022B0000E94B8100E94FF1080E10E94F01C8091E3
:1022C0008E0784FFFCCFE8CF10918E07112309F40D
:1022D00029C214FF04C081E080931B013EC310FF9C
:1022E0002DC18CE0E1E0F1E0DE01599601900D9204
:1022F0008A95E1F7BE01675E7F4FCE010D960E9481
:10230000031D83E993E00E94B81080911A01883080
:1023100069F028F4811110C082E893E00FC0803189
:1023200041F0803249F482E693E008C082E793E00E
:1023300005C081E593E002C08DE393E00E94B810F0
:102340008CE293E00E94B8106D857E858F85988918
:102350000E94831085E293E00E94B81069897A890F
:102360008B899C890E9483108EE193E00E94B810B3
:102370006D897E898F89988D0E9483104090BD0160
:102380005090BE016090BF017090C00165EAA62E1A
:1023900061E0B62E9E012F5F3F4F6901CE010D9681
:1023A0007C0100E0F50161917191819191915F0152
:1023B00020853185428553850E945F384601F601AC
:1023C0006083718382839383023049F4A301920175
:1023D0000E945F38F6016083718382839383F4E007
:1023E000CF0ED11CF4012081318142815381F7014C
:1023F00060817181828193810E945E38F7016193CF
:102400007193819391937F010F5F033059F68BE0B5
:1024100093E00E94B8106D857E858F8598890E9413
:10242000831084E093E00E94B81069897A898B89CF
:102430009C890E9483108DEF92E00E94B8106D89F4
:102440007E898F89988D0E94831080EF92E00E9490
:10245000B81080911A018C7749F0609175077091DE
:102460007607809177079091780703C060E070E06D
:10247000CB010E94741086EE92E00E94B810609129
:1024800013027091140280E090E0611571058105DE
:10249000910521F480E30E943A1B2BC020E05AE012
:1024A000852E912CA12CB12C01E0020F45E2E42EE7
:1024B000F12CEC0EFD1EE20EF11CA50194010E9410
:1024C000DF3CF7016083B901CA01202F6115710556
:1024D0008105910549F7002361F0E4E2F0E0EC0F9B
:1024E000FD1FE00FF11D8081805D0E943A1B0150AD
:1024F000F2CF86ED92E00E94B8108091B602882358
:1025000019F081ED92E002C08BEC92E00E94B810CD
:102510008EEB92E00E94B810319B03C089EB92E0F1
:1025200002C083EB92E00E94B81080EB92E00E9420
:10253000B8100E94C71081E00E94F01C812F887E95
:1025400009F467C080911A01982F937009F050C068
:102550008872A1F080911C01807C81F40E943F254B
:1025600082E080931E0180911A01803239F417FDB8
:10257000F2C180911C01806880931C0180911A0136
:10258000811103C091E090931C0116FF07C085FDE7
:1025900005C090911C01906490931C0113FF05C02D
:1025A000807E19F480E180931A0115FF21C081EF2C
:1025B00091E00E94B8108DE991E00E94B8100E944D
:1025C000FF1080911C0187FD0EC090911A0190347C
:1025D00039F483FFBCC1837E826080931C01B7C144
:1025E000903809F0B4C180911C01806280931C0175
:1025F00017FF0CC080911A01813029F480911C01D1
:10260000856080931C0180E880931A0188EE0E9407
:10261000F01C11FF44C0812F8876F1F580911A01DA
:10262000803471F480911C0185FD0AC084FF03C0D1
:1026300010921A0105C082FF03C0886080931C01BC
:1026400080911A01882381F084FF26C090911C019B
:1026500090FF22C0803141F480912501882321F030
:1026600088608093250118C010921E010E94A7283F
:10267000892B71F080911C0186FD0AC010921C010B
:1026800088E080931A010E94861D0E94D21804C01F
:1026900010921C0110921A0182E00E94F01C12FF9D
:1026A00041C080911A01807D90911C018823D9F04E
:1026B00080911D01811117C097FD15C00E943F2513
:1026C0008091B1038093B0030E94C82880911E01BD
:1026D00081FF05C090911C01916090931C01897F3E
:1026E00080931E011CC097FF0AC010921E010E9419
:1026F000B7280E9463250E9477270E9404118091C9
:102700001C0185FF08C08F77816080931C0180E4E5
:1027100080931A0104C010921C0110921A0184E0E7
:102720000E94F01C90919007992309F4ABC08FB7D9
:10273000F894109290078FBF4091220190FF02C041
:1027400084E601C0842F91FD865F92FD8A5093FD3F
:102750008F5F94FD8150893C08F088EC8A3008F442
:102760008AE03091230195FF02C024E601C0232FA7
:1027700096FD22E397FD29E1481303C0231709F4CE
:1027800081C0809322012093230110922601109191
:10279000B1033090D20689E9D82E96E7E92E26E9D2
:1027A000F22E0EE732E3432E131509F457C0812EA3
:1027B000912C489CC001499C900D11249C012E54E1
:1027C0003C4F5901C9010E943428562E672E782E9D
:1027D000C92E2D2D3E2D4F2D502F0E94763B1816C1
:1027E0004CF42D2D3E2D4F2D502F6D2D7E2D8F2DE8
:1027F000902F08C0252D362D472D5C2D652D762D6B
:10280000872D9C2D0E94B63BF501668B778B808FC0
:10281000918F489CC001499C900D11249C012E541D
:102820003C4F7901F90182A093A0A4A0B5A0A50115
:10283000940166897789808D918D0E94763B181668
:102840002CF4F701868A978AA08EB18E1F5F103113
:1028500009F410E0D52C73010C2DA6CF8D2D9E2DE3
:10286000AF2DB02F80932D0290932E02A0932F02B4
:10287000B09330020E943F258091B1038093B00352
:102880000E94C82810919107112309F459C08FB7ED
:10289000F894109291078FBF9091240110FF02C00D
:1028A00084E601C0892F11FD865F12FD8A5013FD59
:1028B0008F5F14FD8150893C08F088EC8A3008F461
:1028C0008AE09817D1F08093240180911A01811138
:1028D0000DC040918C0150918D0160918E017091DD
:1028E0008F0180918A010E948E1905C080911E017E
:1028F000886080931E011092260180911A0115FFB5
:102900000DC0803159F490912501911102C092E0DF
:1029100003C090FF03C0946090932501107C81F068
:10292000882311F0887361F01091890116FF02C0AD
:102930001F7B01C01064812F0E94282810938901F9
:1029400080911A018C7F49F00E94861D06C080E4A8
:1029500080931A0148CE80E218CEAE960FB6F89456
:10296000DEBF0FBECDBFDF91CF911F910F91FF90C2
:10297000EF90DF90CF90BF90AF909F908F907F901F
:102980006F905F904F903F900895CF92DF92EF92BB
:10299000FF921F93CF93DF930E94151180911C012A
:1029A000882309F4FEC00E94A728009771F4C09103
:1029B0008A0180918901C82BC0908C01D0908D0133
:1029C000E0908E01F0908F010EC0FC01C189C073B0
:1029D0002D9B02C020E401C020E0C22BFC01C6A454
:1029E000D7A4E0A8F1A88091710181FF03C080E223
:1029F0000E94D81CDC2FD07311E0C07C80911C0198
:102A0000882309F4CEC090911B019111CAC080FFA8
:102A1000C5C090911A01292F207C09F474C082FD51
:102A200012C01092250140E050E0BA0180E00E94FF
:102A30008E1980E00E94282880911C018D7F84607F
:102A400080931C01ABC09038E1F481EF91E00E94CB
:102A5000B8108AE591E00E94B8100E94FF1040E093
:102A600050E0BA0180E00E948E1980E00E94282880
:102A70000E943E1680911B01811193C00E94151186
:102A8000F9CF903419F48F7D80931C0180911C0143
:102A900083FF84C090918A019923C1F081FD16C003
:102AA0008091710181FF06C080911E018860809332
:102AB0001E010CC0B701A6018D2F0E948E1941E0A6
:102AC00060E070E080E890E40E94152A809189011E
:102AD000882371F080911C0181FD0AC08C2F0E9417
:102AE000282841E060E070E080E89FE30E94152A1A
:102AF00080911C0181FD52C0806180931C0182E0A5
:102B00000E94FA1C4BC0809125018823C9F181FFE6
:102B10000DC080918A018823B1F040E050E0BA01F5
:102B200080E00E948E191093250138C08C70B1F19D
:102B300080918A0181110AC08091250183FF03C021
:102B400082E00E94FA1C1092250128C081EF91E0DA
:102B50000E94B81083E691E00E94B8100E94FF1016
:102B60008091710181FF06C080911E018860809371
:102B70001E01E2CFB701A6018D2F0E948E19DCCF76
:102B800080911E0183FF0AC0B701A6018D2F0E940C
:102B90008E1980911E01877F80931E010E9415115E
:102BA0002DCFDF91CF911F91FF90EF90DF90CF90CD
:102BB00008950E94BD0F0E94C51480911B018111D0
:102BC00008C00E94A728892BB1F780911A0188308C
:102BD00091F308958093B300811104C08091B000F7
:102BE0008F7703C08091B00080688093B000089513
:102BF00030915D01632F20915E01422F932F9170E0
:102C000030FD94E0822F817020FD80E261FD9860AC
:102C100041FD806462FD906142FD8068909388036D
:102C200080938903109286031092870333FF03C0B9
:102C300080E18093860323FF03C088E080938703AD
:102C400008951F920F920FB60F9211248F939F93A6
:102C50008BB1909188039C71837E892B8BB988B14D
:102C60009091860390718F7E892B88B915BC9F91B6
:102C70008F910F900FBE0F901F9018951092B60273
:102C800080916F008D7F80936F0080918100887F9D
:102C900081608093810010928A0380915F019091FE
:102CA0001A018F3F39F420918F07211103C090380A
:102CB00071F402C0943059F090E0009741F0EFE9D0
:102CC000FFE03197F1F700C000000197F6CF0895BB
:102CD0001F920F920FB60F9211242F933F934F9391
:102CE0005F936F937F938F939F93AF93BF93EF9374
:102CF000FF9380918A03811144C28BB190919A0312
:102D0000907E8F71892B8BB988B190919C039870BC
:102D1000877F892B88B98BB1837E90919903892B0A
:102D20008BB988B18F7E90919B03892B88B9809154
:102D3000980386BD82E085BD81E080938A03789404
:102D40008091AE039091AF03892B09F0C1C08091AF
:102D5000D3069091FE06981709F4A6C0E091D30619
:102D60002E2F30E087E0E89FF0011124EC52F94F5C
:102D7000F093AF03E093AE03828193819093890037
:102D800080938800808191819093AA038093A90306
:102D9000E4818091AB038E1761F1E093AB0383E193
:102DA000E89FF0011124E150F94FF093AD03E09357
:102DB000AC0384859585A685B785B695A795979527
:102DC00087958093930390939403A0939503B09376
:102DD000960380938F0390939003A0939103B093F5
:102DE000920380938B0390938C03A0938D03B093F5
:102DF0008E03E091AC03F091AD039089809189033B
:102E0000892780939A0391898091870389278093EA
:102E10009C0387E0829FD001839FB00D1124AC52A8
:102E2000B94F15968C9115974081518162817381BC
:102E3000082E04C076956795579547950A94D2F762
:102E400040939D0350939E0360939F037093A00350
:102E50004481558166817781082E04C076956795F7
:102E6000579547950A94D2F74093A1035093A20334
:102E70006093A3037093A403408551856285738595
:102E800004C076956795579547958A95D2F74093F4
:102E9000A5035093A6036093A7037093A803169607
:102EA0008C910E94EA1514C00E943E16E091AC037A
:102EB000F091AD038289882339F01092B30080919C
:102EC000B0008F778093B00084E00E94FA1C59C153
:102ED000809119018130B1F486B180729091000126
:102EE000891781F0109219018CE0E1E0F1E0ADE08A
:102EF000B1E001900D928A95E1F780918E07806490
:102F000080938E071092990310929B0340918B033C
:102F100050918C0360918D0370918E0380919D037D
:102F200090919E03A0919F03B091A003840F951FE1
:102F3000A61FB71F80938B0390938C03A0938D03E0
:102F4000B0938E03E091AC03F091AD0344855585B9
:102F500066857785481759076A077B0768F524E077
:102F6000209399034485558566857785841B950B49
:102F7000A60BB70B80938B0390938C03A0938D03C8
:102F8000B0938E0320898091010190910201A0915C
:102F90000301B091040125FF04C00197A109B10903
:102FA00003C00196A11DB11D809301019093020100
:102FB000A0930301B093040140918F0350919003BB
:102FC00060919103709192038091A1039091A2036B
:102FD000A091A303B091A403840F951FA61FB71F50
:102FE00080938F0390939003A0939103B0939203E7
:102FF0004485558566857785481759076A077B0795
:1030000090F52091990328602093990320E1209363
:103010009B034485558566857785841B950BA60B98
:10302000B70B80938F0390939003A0939103B09379
:10303000920320898091050190910601A0910701DA
:10304000B091080126FF04C00197A109B10903C08E
:103050000196A11DB11D8093050190930601A093D7
:103060000701B0930801409193035091940360913C
:103070009503709196038091A5039091A603A0916A
:10308000A703B091A803840F951FA61FB71F8093B5
:10309000930390939403A0939503B0939603448570
:1030A000558566857785481759076A077B0778F540
:1030B0002091990320612093990344855585668565
:1030C0007785841B950BA60BB70B80939303909386
:1030D0009403A0939503B0939603208980910901EE
:1030E00090910A01A0910B01B0910C0127FF04C03F
:1030F0000197A109B10903C00196A11DB11D8093DB
:10310000090190930A01A0930B01B0930C018091E7
:103110001A01843071F490919903809120018923E0
:103120008093990390919B0380912101892380933F
:103130009B038091A9039091AA0301979093AA03FE
:103140008093A903892B69F41092AF031092AE0308
:103150008091D3068F5F8093D306863011F410924E
:10316000D3069091990380918803892780939903CE
:1031700090919B0380918603892780939B031092F3
:103180008A03FF91EF91BF91AF919F918F917F91B2
:103190006F915F914F913F912F910F900FBE0F90C4
:1031A0001F90189581E08093B602EBE8F3E08091E0
:1031B0008803868780915C01880F8450819585877C
:1031C000EFE6F0E080818260808308954F925F9205
:1031D0006F927F928F929F92AF92BF92CF92DF9227
:1031E000EF92FF926B017C0180906D0190906E01D7
:1031F000A0906F01B09070014090690150906A01F9
:1032000060906B0170906C01A3019201C501B40143
:103210000E94763B87FF19C06091240170E080E036
:1032200090E00E94083A2AE037ED43E25CE30E9416
:10323000B63BA70196010E94B63B6B017C01A3013E
:1032400092010E94763B87FD0AC04092280150926D
:10325000290160922A0170922B018FEF47C0A501CE
:103260009401C701B6010E9454391816E4F020E019
:1032700030E0A901C701B6010E945439811109C08B
:10328000109228011092290110922A0110922B010C
:103290002DC08092280190922901A0922A01B0921B
:1032A0002B0181E023C0C0922801D0922901E09235
:1032B0002A01F0922B01A5019401C701B6010E94D9
:1032C0005E382091820330918303409184035091B2
:1032D00085030E94B63B0E94433A20E030E040E87C
:1032E0005FE30E945F380E94D739862FFF90EF90EE
:1032F000DF90CF90BF90AF909F908F907F906F9016
:103300005F904F900895E0EBF0E080818F778083AD
:103310001092B5021092B4020C94041190911B010A
:1033200091111EC081110BC0109228011092290129
:1033300010922A0110922B010E9483190FC09091C4
:10334000710191FF05C0803219F440E050E0BA01EC
:10335000CB01BA010E94E6180E94EA1510922601DC
:103360000895239A83E08093B00084E08093B100B5
:1033700020916D0130916E0140916F01509170016B
:103380006091690170916A0180916B0190916C016B
:103390000E945E389B01AC0160E070E08EE793E430
:1033A0000E945E3960938203709383038093840349
:1033B000909385030C9483196AE080E090E00E946A
:1033C0007D2745E550E06CE271E081E090E00C94EF
:1033D0009F270F931F93CF93C82F8B010E94D9155E
:1033E0002DE0C29FC00111244CE050E0B8019E5F67
:1033F000CF911F910F910C949F271F93CF93DF9331
:10340000182FEB018DE0189FB00111247E5F4CE076
:1034100050E0CE010E94E427892B59F48CE0FE0194
:1034200011928A95E9F7BE01812F0E94E91980E087
:1034300001C081E0DF91CF911F910895EF92FF923B
:103440000F931F93CF93DF93CDB7DEB72C970FB6B3
:10345000F894DEBF0FBECDBF182F80FF0BC085E5EF
:10346000E7EAF3E0ACE2B1E005900D928A95E1F76E
:103470000E94DC1911FF10C0CE0101967C018CE086
:10348000F70111928A95E9F700E0B701802F0E94B9
:10349000E9190F5F0830C9F712FF14C060E080E03F
:1034A00093E00E947D2760E081E093E00E947D2709
:1034B00060E081E593E00E947D2760E082E593E093
:1034C0000E947D2713FF0AC060E08EEA93E00E940D
:1034D0007D2760E08FEA93E00E947D272C960FB64F
:1034E000F894DEBF0FBECDBFDF91CF911F910F913A
:1034F000FF90EF9008951F920F920FB60F92112434
:103500002F933F934F935F936F937F938F939F93EB
:10351000AF93BF93EF93FF93E091C600EE33E1F0DA
:1035200048F4E13299F0EC3399F0E831F1F40E947B
:10353000442A65C0EE35A1F0EE3721F0EF33A9F44F
:1035400081E001C082E00E94FA1C59C088E0FBCFF4
:1035500081E08093B50253C081E08093B4024FC0F4
:103560001092B5021092B4024AC0E7FF37C08E2F06
:1035700090E0FC01E458F109ED31F10508F03FC09D
:10358000E659FF4F0C94013D80E2DDCF80911A0196
:1035900085FF35C080E4D7CF81E00DC082E00BC04D
:1035A00084E009C088E007C080E105C080E203C074
:1035B00080E401C080E80E94E11C21C081E00BC0D2
:1035C00082E009C084E007C088E005C080E103C054
:1035D00080E201C080E40E94D81C11C0A091B30217
:1035E00081E08A0F813809F480E09091B202891756
:1035F00031F0B0E0AF5CBD4FEC938093B302FF912C
:10360000EF91BF91AF919F918F917F916F915F915A
:103610004F913F912F910F900FBE0F901F901895D3
:103620001F920F920FB60F9211248F939F93EF93D7
:10363000FF9380918103E82FF0E0E854FD4F9081E3
:103640009093C6008F5F893C09F480E080938103EA
:103650009091B702891305C08091C1008F7D80933E
:10366000C100FF91EF919F918F910F900FBE0F902E
:103670001F901895E091B70291E09E0F993C31F4AC
:1036800090E004C020918E0724FD0FC0209181039B
:103690002917C1F3F0E0E854FD4F80839093B702FF
:1036A0008091C10080628093C1000895CF93C82F9C
:1036B00080EA93E00E94B8108C2F0E949210CF9164
:1036C0000C94C710EF92FF920F931F93CF93DF9349
:1036D00060915C0170E080E00E94EB1060915F01FE
:1036E00070E081E00E94EB1060915D0170E082E08B
:1036F0000E94EB1060915E0170E083E00E94EB108D
:103700006091710162FB662760F970E084E00E94BD
:10371000EB106091710166FB662760F970E085E04F
:103720000E94EB1080917101082E000C990B692FFB
:10373000661F6627661F70E086E00E94EB106091AE
:10374000600170E08AE00E94EB10409161015091AD
:103750006201609163017091640123E08BE00E943B
:10376000CB104091650150916601609167017091A5
:10377000680123E08CE00E94CB10609171016170C0
:1037800070E08DE00E94EB106091710165FB66278F
:1037900060F970E084E10E94EB106091710163FBBD
:1037A000662760F970E085E10E94EB10609171017D
:1037B0006295617070E086E10E94EB106091720189
:1037C00070E087E10E94EB10409173015091740109
:1037D000609175017091760123E088E10E94CB1021
:1037E00040917701509178016091790170917A014F
:1037F00023E089E10E94CB1060917B0170917C01F4
:103800008AE10E94EB1040917D0150917E01609110
:103810007F017091800123E08BE10E94CB104091E9
:10382000690150916A0160916B0170916C0120E017
:103830008EE10E94CB1040916D0150916E0160911C
:103840006F017091700120E08FE10E94CB106091B8
:1038500071016695617070E080E20E94EB10D4E621
:10386000F12C0CE211E083E0E82EED0ECD2F82E08A
:10387000F81691F0E3E0FE16E9F0F1E0FF1631F002
:10388000F80140815181628173811AC0F801448539
:1038900055856685778514C020E030E041E655E423
:1038A000F801608D718D828D938D0E945E39AB0120
:1038B000BC0106C0F80144A155A166A177A17058CA
:1038C00023E08C2F0E94CB100C5F1F4FCF5FEC12B8
:1038D000CECFD65FF394DC3821F6DF91CF911F91E4
:1038E0000F91FF90EF900895811103C08EE30C9427
:1038F0003A1B0C94561BCF93DF93C8E9D7E089910C
:10390000882319F00E943A1BFACFDF91CF910895D6
:10391000CF93DF9321E5829FC0011124EC01DD5F8D
:1039200040E550E0BE0188E997E00E94E427892B3A
:1039300069F4109298070E94D91540E550E068E9B3
:1039400077E0CE010E949F2780E001C081E0DF91F7
:10395000CF910895CF93DF93C0E08C2F0E94881CF5
:1039600081110EC0109298078EE30E943A1B0E94AC
:103970007B1C8AE30E943A1B87E00E94561B12C000
:1039800080919807882371F00E941202D82F8EE34D
:103990000E943A1B0E947B1C8AE30E943A1B8D2FD7
:1039A0000E94741CCF5FC230C1F6DF91CF910895A1
:1039B0009FB7F89420919107822B809391079FBF26
:1039C00008959FB7F89420919007822B80939007D9
:1039D0009FBF08959FB7F89480938F079FBF089566
:1039E0002FB7F89490918E078095892380938E0746
:1039F0002FBF08959FB7F89420918E07822B809354
:103A00008E079FBF08958F929F92AF92BF92CF92E1
:103A1000DF92EF92FF920F931F93CF93DF93EB010F
:103A20002CE2E22E21E0F22E8C016B018CE0C80E1C
:103A3000D11C6991799189919991F7018190919027
:103A4000A190B1907F010E94083AA50194010E94C3
:103A50005E39F80161937193819391938F01CC1535
:103A6000DD0539F7DF91CF911F910F91FF90EF9016
:103A7000DF90CF90BF90AF909F908F9008951F924E
:103A80000F920FB60F9211242F933F934F935F9392
:103A90006F937F938F939F93AF93BF93CF93EF9346
:103AA000FF9386B18095982F9770F1F081FF02C047
:103AB000C2E001C0C0E080FDC16082FF02C0C460FE
:103AC00002C0CC2389F0C0FD0E94442AC2FF05C079
:103AD00080918E07826080938E07C1FF05C0809120
:103AE0008E07886080938E07FF91EF91CF91BF91F1
:103AF000AF919F918F917F916F915F914F913F9186
:103B00002F910F900FBE0F901F9018952F923F92FC
:103B10004F925F926F927F928F929F92AF92BF92DD
:103B2000CF92DF92EF92FF920F931F93CF93DF9389
:103B3000CDB7DEB7EC970FB6F894DEBF0FBECDBFA2
:103B400080911E0180FD82C79091D30680919207DB
:103B5000981709F47BC78091950790919607892B58
:103B600009F01CC310911E0112FF09C08091D206FA
:103B700022E3289FC00111248E549C4F02C00E9452
:103B8000A7289093960780939507209095073090EB
:103B900096072114310409F459C700915F07802F5B
:103BA000817000FF03C010925F07F1C090915E0723
:103BB0009F5F953009F0892F80935E07E82EF12CE6
:103BC00033E13E9DF0013F9DF00D1124E150F94F8E
:103BD000F0939407E0939307D10150969C91908BBA
:103BE00096FF0AC0B8E0B18BD101E3E18E9FC0011E
:103BF000112420E030E002C0118AF6CF4D915D9192
:103C00006D917D91F901E80FF91FE150F94F68942A
:103C100012F8440F551F661F771F1694D1F7408383
:103C20005183628373832C5F3F4F2C30310531F712
:103C300023E12E9DF0012F9DF00D11249F012150B5
:103C4000394FF10184859585A685B78543E0880FB6
:103C5000991FAA1FBB1F4A95D1F7F9018487958741
:103C6000A687B787D1011C966D917D918D919C910E
:103C70001F970E94063A60936407709365078093CC
:103C8000660790936707F101268D378D40A151A1FA
:103C90000E945E399B01AC016093680770936907CD
:103CA00080936A0790936B0760E070E080EA9FE37F
:103CB0000E945E3960936C0770936D0780936E0766
:103CC00090936F071092600710926107109262073D
:103CD0001092630711FD02C003FF1FC060917D07B2
:103CE00070917E0780917F079091800760937507A0
:103CF0007093760780937707909378079B01AC01C8
:103D00000E94B63BD10152966D937D938D939C9307
:103D10005597077F00935F070FC0F1016289738990
:103D2000848995890E94553C609375077093760746
:103D30008093770790937807F3E1FE9DC001FF9D84
:103D4000900D11249C012150394F7901D9015296CF
:103D50001C928091710181FF1AC0F101818985FF58
:103D600016C022A533A544A555A560E070E080E803
:103D70009FE30E945E396093890770938A0780935E
:103D80008B0790938C07E1E0D7015296EC93109249
:103D90007107109272071092730710927407D10185
:103DA0005A962D913D914D915C915D9729833A836F
:103DB0004B835C8360E070E080E09FE30E945E39AB
:103DC0004B015C01F101468C578C60A071A011FF82
:103DD0004BC0F2E0F0937007D1015296CD90DD9088
:103DE000ED90FC905597A70196010E94B63B9B0170
:103DF000AC01C301B2010E945E384B015C0120E0BE
:103E000030E0A9010E94543987FF1DC029813A8101
:103E10004B815C81CA01B9010E945F38A301920104
:103E20000E94B63B9B01AC01C701B6010E945E38FF
:103E30000E94553C60937D0770937E0780937F07B7
:103E400090938007A8C18092710790927207A09208
:103E50007307B092740710927D0710927E0710923C
:103E60007F071092800797C11092700740928107D8
:103E700050928207609283077092840712FF0CC0F1
:103E800010927D0710927E0710927F071092800794
:103E9000C12CD12C760124C0E091B103EF5FE03159
:103EA00009F4E0E08091D2068E1759F0B2E3BE9F8C
:103EB000F0011124EE54FC4FC288D388E488F588C1
:103EC00003C0C12CD12C7601C701B6010E94553C1C
:103ED00060937D0770937E0780937F0790938007A0
:103EE000C1010E943428698B7A8B8B8B9C8B9B0140
:103EF000AC010E94B63B69877A878B879C87D1018A
:103F000052962D913D914D915C9155972D833E8315
:103F10004F8358870E94543987FF6CC029853A85A2
:103F20004B855C856D817E818F8198850E945E388E
:103F3000A50194010E94B63B9B01AC01C301B201F3
:103F40000E945E3860938107709382078093830795
:103F50009093840720E030E0A9010E94543918169C
:103F60003CF1B2E0B093700729813A814B815C81CA
:103F7000CA01B9010E945F38A30192010E94B63BB9
:103F80009B01AC016D817E818F8198850E945E3896
:103F90000E94553C60937D0770937E0780937F0756
:103FA0009093800780915F07886080935F07F3C0DC
:103FB000A701960169857A858B859C850E945E386C
:103FC000A50194010E94B63B609385077093860714
:103FD000809387079093880729893A894B895C8960
:103FE0002093790730937A0740937B0750937C079F
:103FF00033E0B6C0A70196016D817E818F819885DF
:104000000E945E38A50194010E94B63BA301920173
:104010000E945F3820E030E040E05FE30E94B63B62
:104020006D877E878F87988B20E030E0A9010E9402
:10403000763B18160CF097C02D853E854F85588924
:10404000C301B2010E94763B18160CF088C0A7018C
:10405000960169857A858B859C850E945E38A501CD
:1040600094010E94B63B9B01AC016093850770935D
:10407000860780938707909388076D857E858F8557
:1040800098890E94763B1816CCF589899A89AB8964
:10409000BC898093790790937A07A0937B07B093AC
:1040A0007C072D813E814F81588569857A858B8576
:1040B0009C850E945439811104C091E0909370074F
:1040C0006AC02D813E814F81588569857A858B85AF
:1040D0009C850E945E38A50194010E94B63B9B011D
:1040E000AC01C301B2010E945E38609381077093F6
:1040F000820780938307909384074DC02D853E856A
:104100004F85588920938107309382074093830716
:104110005093840720938507309386074093870741
:104120005093880729813A814B815C81CA01B9018A
:104130000E945F382D853E854F8558890E94B63B89
:10414000A70196010E945F380E94553C6093790751
:1041500070937A0780937B0790937C071CC032E0B2
:104160003093700718C01092810710928207109246
:1041700083071092840780917D0790917E07A0911C
:104180007F07B09180078093790790937A07A09377
:104190007B07B0937C07186010931E018091FE0688
:1041A000482F50E05A8B498B87E0849FF001859F10
:1041B000F00D1124EC52F94F80915E078483A09199
:1041C0009507B0919607BCAFABAF5E96BC91BAA312
:1041D000EBADFCADF78DFBA3ABADBCAD9096BC9148
:1041E000BCA3EBADFCADF1A1FDA320916C07309118
:1041F0006D0740916E0750916F076AA17BA18B2FCD
:104200009F2F0E945E386EA77FA788AB99AB20E0F6
:1042100030E0A9010E94543987FF04C01EA61FA6E2
:1042200018AA19AA209179072E8B30917A073F8B13
:1042300040917B07488F50917C07598F809181076F
:104240008A8F909182079B8FA0918307AC8FB0914A
:104250008407BD8FE0917007ED8BF0918507FEA379
:10426000209186072FA33091870738A740918807B0
:1042700049A7509175075983809176078D83909156
:1042800077079987A0917807AD87B0917107BAA792
:10429000E0917207EBA7F0917307FCA720917407D8
:1042A0002DA730917D073BAB40917E074CAB5091E1
:1042B0007F075DAB809180078EAB2EA13FA148A503
:1042C00059A56A8D7B8D8C8D9D8D0E9454398111ED
:1042D00003C092E09AAB02C0A1E0AAAB3AA02BA027
:1042E0001CA10DA18EE3C82E83ECD82E8EE2E82E01
:1042F00089E3F82E412C512C3201CE8EDF8EE8A2BC
:10430000F9A23D89313009F4F2C0ABADBCAD31301A
:1043100008F47BC0333009F020C15A962D913D91AD
:104320004D915C915D97C701B6010E94B63B4B0170
:104330005C012E893F89488D598D69817D818985F0
:104340009D850E945E389B01AC01C501B4010E94AD
:10435000763B87FD31C02A8D3B8D4C8D5D8D6AA1EA
:104360007BA18CA19DA10E945E389B01AC010E94A3
:104370005F386B017C0129813D8149855D856E89AE
:104380007F89888D998D0E945F389B01AC01C701A0
:10439000B6010E945E396B017C01BE89B983EF8949
:1043A000ED83F88DF987298D2D873A8C2B8C1C8D08
:1043B0000D8D31E03D8B51C120E030E040E05FE306
:1043C000C501B4010E94B63B9B01AC0169817D81AE
:1043D00089859D850E945E38A70196010E94B63BA3
:1043E0009B01AC01632D722D812F902F0E945E38AE
:1043F000362E272E182F092FA501940169817D8162
:1044000089859D850E945E386DC05A962D913D919B
:104410004D915C915D97C701B6010E94B63B4B017F
:104420005C0120E030E040E05FE30E94B63B298180
:104430003D8149855D850E945F38A70196010E94F4
:10444000B63B9B01AC01632D722D812F902F0E94F2
:104450005E38362E272E182F092F262F372F482F5C
:10446000592F6A8D7B8D8C8D9D8D0E94763B181601
:104470008CF52A8D3B8D4C8D5D8D6AA17BA18CA125
:104480009DA10E945E389B01AC010E945F386B01C8
:104490007C0129813D8149855D856E897F89888D73
:1044A000998D0E945F389B01AC01C701B6010E9443
:1044B0005E396B017C01BE89B983EF89ED83F88D8C
:1044C000F987298D2D873AA93D8B3A8C2B8C1C8D31
:1044D0000D8DC3C0A501940169817D8189859D856C
:1044E0000E945F3869837D8389879D87B6C02E8946
:1044F0003F89488D598DC701B6010E94B63B9B018B
:10450000AC01632D722D812F902F0E945E385B01CC
:104510004C019B01AC016EA17FA188A599A50E94C9
:10452000763B18160CF095C02EA13FA148A559A5C1
:10453000632D722D812F902F0E945E382E893F8926
:10454000488D598D0E945E396B017C013EA02FA0E1
:1045500018A509A542E04D8B80C05A962D913D913A
:104560004D915C915D97C701B6010E94B63B4B012E
:104570005C0129813D8149855D850E94543987FF11
:1045800039C020E030E040E05FE3C501B4010E94A3
:10459000B63B9B01AC0169817D8189859D850E9427
:1045A0005E38A70196010E94B63B9B01AC01632DCA
:1045B000722D812F902F0E945E386FAB78AF89AF3C
:1045C0009AAF2AA53BA54CA55DA50E94763B18167F
:1045D0008CF4A501940169817D8189859D850E9466
:1045E0005E3869837D8389879D873FA828AC19AD94
:1045F0000AAD33C02AA53BA54CA55DA5632D722D40
:10460000812F902F0E945E389B01AC010E945F3881
:104610006B017C0129813D8149855D856BA97CA960
:104620008DA99EA90E945F389B01AC01C701B6010C
:104630000E945E396B017C01BBA9B983ECA9ED83B3
:10464000FDA9F9872EA92D873AA42BA41CA50DA599
:1046500004C03A2C2B2C182D092DA7019601C3015B
:10466000B2010E945F382B013C012E8D3F8D48A185
:1046700059A10E94543987FF07C0A30192016E8D92
:104680007F8D88A199A11CC02EA53FA548A959A935
:10469000632D722D812F902F0E94763B181624F5E2
:1046A0002EE333EC4EE259E36E8D7F8D88A199A104
:1046B0000E945F386E8F7F8F88A399A3A301920118
:1046C0000E945E386B017C01232D322D412F502F2B
:1046D0006AA57BA58CA59DA50E94543987FD11CEA6
:1046E0003D893093700703C04D89409370078981DD
:1046F0009D81A985BD858093750790937607A093CA
:104700007707B0937807E0919307F0919407928927
:10471000911104C080911E0183FF3FC0ABADBCADC1
:1047200051968C915197807349F19E96CD90DD9072
:10473000ED90FC90D1979923D1F020918907309189
:104740008A0740918B0750918C0760917507709193
:10475000760780917707909178070E94B63B9B017E
:10476000AC01C701B6010E94B63B6B017C01C701D9
:10477000B6010E94E61880938D070AC010922801A6
:104780001092290110922A0110922B0110928D078C
:1047900080911E01877F80931E0147E029893A8915
:1047A000429FF001439FF00D1124EC52F94FFA871C
:1047B000E98780918D07868320916807309169078A
:1047C00040916A0750916B07632D722D812F902FB6
:1047D0000E94B63B69837A838B839C830E943D3918
:1047E0006B017C0160916407709165078091660799
:1047F000909167070E943D394B015C01A70196012A
:104800000E945E380E94D7396D837E838F8398879C
:10481000ED81FE81A985BA85ED93FC93EF2B41F4E0
:1048200080911E0181FF04C0816080931E010EC132
:1048300020916007309161074091620750916307B2
:10484000C301B2010E945F382B013C0129813A81EA
:104850004B815C81C501B4010E945E389B01AC01B3
:10486000C301B2010E945E394B015C0120EC31EEC4
:1048700044E65EE40E94B63B0E943D390E94D7396F
:10488000603D37E073078105910560F4A7E0498931
:104890005A89A49FF001A59FF00D1124EC52F94F05
:1048A000158253C0603ABFE07B078105910560F433
:1048B00047E029893A89429FF001439FF00D112476
:1048C000EC52F94F51E011C06034AFE17A07810535
:1048D000910568F447E029893A89429FF001439F96
:1048E000F00D1124EC52F94F52E055830CC027E033
:1048F000A989BA892A9FF0012B9FF00D1124EC524F
:10490000F94F33E03583A7E049895A89A49FF00124
:10491000A59FF00D1124EC52F94F2581022E04C001
:1049200096958795779567950A94D2F74D815E8124
:1049300002C0440F551F2A95E2F751834083611549
:10494000710551E08507910568F427E0A989BA89C6
:104950002A9FF0012B9FF00D1124EC52F94F738325
:10496000628304C04FEF5FEF5383428380919207CD
:104970008093FE068F5F863019F08093920702C005
:1049800010929207E0919507F0919607832D922D52
:10499000A12FB02F868F978FA0A3B1A3C0926407D9
:1049A000D0926507E0926607F092670729813A8105
:1049B0004B815C81C701B6010E945E38A50194015C
:1049C0000E94B63B60936007709361078093620713
:1049D000909363072091710730917207409173079C
:1049E00050917407632D722D812F902F0E9454399E
:1049F0008111AAC820E030E0A901632D722D812F1A
:104A0000902F0E94763B90911E01181614F092FF91
:104A100004C0916090931E0119C0109296071092E5
:104A200095079091B1038091D206891709F48CC83B
:104A300081E0890F803109F480E02091B003921366
:104A400002C08093B0038093B1037EC8EC960FB68A
:104A5000F894DEBF0FBECDBFDF91CF911F910F91B4
:104A6000FF90EF90DF90CF90BF90AF909F908F908E
:104A70007F906F905F904F903F902F900895CF93CD
:104A8000DF93C0919507D09196072097C9F0809148
:104A90005F07816080935F0760917507709176076B
:104AA00080917707909178079B01AC010E94B63BFB
:104AB0006A8B7B8B8C8B9D8B10929607109295073F
:104AC000DF91CF910895CF93DF930E943E1680E34C
:104AD000EEE5F7E0DF011D928A95E9F7CBE8D3E038
:104AE00085E2FE0111928A95E9F7109296071092DD
:104AF00095071092D3061092FE0681E080939207EC
:104B000010928A030E94F815809189038F878BB1D8
:104B1000837E90918803892B8BB98BB18F71909193
:104B20008903892B8BB980918703898B88B18F7E0C
:104B300090918603892B88B988B1877F90918703EC
:104B4000892B88B9DF91CF9108951F920F920FB6EC
:104B50000F9211240F931F932F933F934F935F93C3
:104B60006F937F938F939F93AF93BF9340910B026B
:104B700050910C0260910D0270910E028091FD0126
:104B80009091FE010091FF0110910002209101021D
:104B900030910202401B510B620B730B092E000C6B
:104BA000AA0BBB0B84179507A607B70708F051C0DF
:104BB0008091B4028823C9F080915E0182FF02C017
:104BC0005F9A01C05F985C9A25E32A95F1F700008F
:104BD0005C988091090190910A01A0910B01B0911C
:104BE0000C010196A11DB11D1CC08091B502882346
:104BF00001F180915E0182FF02C05F9801C05F9A5F
:104C00005C9A85E38A95F1F700005C988091090130
:104C100090910A01A0910B01B0910C010197A1099B
:104C2000B1098093090190930A01A0930B01B093FD
:104C30000C0180910B0290910C02A0910D02B09199
:104C40000E028093FF0190930002A0930102B093A3
:104C500002028091030290910402A0910502B0919A
:104C600006020897A105B10508F485C08091B60237
:104C7000882309F465C0319B15C01092B4021092CC
:104C8000B5028091070290910802A0910902B091AB
:104C90000A0280930F0290931002A0931102B09326
:104CA00012024EC08091070290910802A091090261
:104CB000B0910A0240910F025091100260911102CE
:104CC00070911202841B950BA60BB70B893B9B407E
:104CD000A105B105A8F18091FB019091FC014F97CE
:104CE00078F18091FB019091FC01209113023091A9
:104CF00014020A978217930788F48091FB01909120
:104D0000FC0120911302309114020A9628173907EA
:104D100028F41092B4021092B50212C0209113022E
:104D2000309114028091FB019091FC01821793074E
:104D300020F481E08093B50203C081E08093B40247
:104D400010920302109204021092050210920602C1
:104D50008091070290910802A0910902B0910A0285
:104D60000196A11DB11D8093070290930802A093A4
:104D70000902B0930A028FED8093B20017BA8091B6
:104D80000B0290910C02A0910D02B0910E0283587B
:104D90009F4FAF4FBF4F80930B0290930C02A09395
:104DA0000D02B0930E028091030290910402A09133
:104DB0000502B09106020196A11DB11D8093030268
:104DC00090930402A0930502B0930602BF91AF91A5
:104DD0009F918F917F916F915F914F913F912F9113
:104DE0001F910F910F900FBE0F901F9018951F925B
:104DF0000F920FB60F9211242F938F939F93809150
:104E000078002091790090E0922B90931402809387
:104E100013029F918F912F910F900FBE0F901F90B3
:104E200018951F920F920FB60F9211242F933F9354
:104E30004F935F936F937F938F939F93AF93BF93A2
:104E4000EF93FF9380911A01813049F080918F0791
:104E5000811105C00E94442A81E00E94EA1CFF9152
:104E6000EF91BF91AF919F918F917F916F915F91E2
:104E70004F913F912F910F900FBE0F901F9018955B
:104E800093B196718091710186FD02C086E19827E9
:104E9000992349F091FB882780F992FD82609071F7
:104EA00019F08C60089580E00895EBE6F0E08081D1
:104EB000897E8083E8E6F0E080818E7F808308959C
:104EC00084B1897E84B985B1866185B9809171018B
:104ED00083FF0BC080916B00866180936B00809193
:104EE000680081608093680008950C94552761E004
:104EF00071E089E991E00C94031DF894F999FECFD3
:104F000092BD81BD81E08FBB80B58627482F082EDA
:104F1000000C550B262F30E024233523232B39F0AA
:104F20006F3F19F060BD84E006C084E104C08823AF
:104F300021F060BD84E28FBBF99A789408959F9226
:104F4000AF92BF92CF92DF92EF92FF920F931F9397
:104F5000CF93DF935C018A017B01E40EF51EEB0128
:104F6000912C6C01C61AD70ACE018C0D9D1DCE1551
:104F7000DF0589F0911008C0292D990C330B232FE0
:104F8000221F2227221F01C021E06991922E960E36
:104F90000E947D27E9CF692DC501800F911FDF9108
:104FA000CF911F910F91FF90EF90DF90CF90BF9026
:104FB000AF909F900C947D27F999FECF92BD81BD53
:104FC00081E08FBB80B508959F92AF92BF92CF9240
:104FD000DF92EF92FF920F931F93CF93DF935B01CA
:104FE0008A017C01E40EF51EEC01912C6B01C81ABC
:104FF000D90AC6018C0F9D1FCE15DF0589F00E94CE
:10500000DC27911008C0292D990C330B232F221F68
:105010002227221F01C021E0982E920E8993E9CF0A
:10502000C501800F911F0E94DC2721E030E0981617
:1050300011F020E030E0C901DF91CF911F910F9175
:10504000FF90EF90DF90CF90BF90AF909F9008952A
:1050500090911B01911107C086FF02C02D9A01C0DB
:105060002D98109226010895BF92CF92DF92EF9271
:10507000FF920F931F93CF93DF937C01FC0102A556
:1050800013A5D4A5C5A5818980FF18C0609123010F
:1050900070E080E090E00E94083A2AE037ED43E2B9
:1050A0005CE30E94B63B9B01AC01B8018D2F9C2FA5
:1050B0000E94B63B8B01D82FC92F2DC082FD17C08F
:1050C0006091220170E080E090E00E94083A2AE0BE
:1050D00037ED43E25CE30E94B63B9B01AC01B801B3
:1050E0008D2F9C2F0E94B63B8B01D82FC92FF70123
:1050F000B6A0C7A0D0A4F1A42B2D3C2D4D2D5F2D23
:10510000B8018D2F9C2F0E94763B181624F40B2D8E
:105110001C2DDD2DCF2D20E030E040E85FE3B8010D
:105120008D2F9C2F0E94763B181624F000E010E093
:10513000D0E8CFE3B8018D2F9C2FDF91CF911F9145
:105140000F91FF90EF90DF90CF90BF9008958091E6
:10515000B1039091D206981739F022E3829FC001E3
:1051600011248E549C4F089580E090E008958CE1C6
:10517000E5E1F2E0DF011D928A95E9F71092B103B3
:105180001092D20681E0809397071092B0030895A1
:105190002F923F924F925F926F927F928F929F9247
:1051A000AF92BF92CF92DF92EF92FF920F931F9335
:1051B000CF93DF93C091D206C11101C0C0E1C150AD
:1051C000D091B003DC1709F41DC1EC2EF12C22E3C1
:1051D000C29F800111240E541C4FF801A688B78885
:1051E000C08CD18C628D738D848D958D9B01AC01AB
:1051F0000E945F38F801268D378D40A151A10E9491
:10520000B63B4B018C019B01AC01B501C6010E946C
:10521000543987FD02C05401680182E38E9DF0017C
:105220008F9DF00D1124EE54FC4FC501D601828BE9
:10523000938BA48BB58BC11101C0C0E1C150DC17A9
:1052400061F022E32E9DC0012F9D900D11249C0141
:105250002E543C4F7901D2E333C08091B103D8136F
:1052600060C00E943F255DC0AC2EB12CDA9DC0010C
:10527000DB9D900D1124FC01EE54FC4F6F01C11118
:1052800001C0C0E1C1508091B1038C1302C00E94E3
:105290003F25DA9D8001DB9D100D11240E541C4F1B
:1052A000F80186889788A08CB18CA5019401628949
:1052B0007389848995890E945439811106C07601C9
:1052C0008091B003C813D0CF2CC0F801628D738DCC
:1052D000848D958D9B01AC010E945F38F801268D6D
:1052E000378D40A151A10E94B63BF7012289338935
:1052F000448955890E945F382B013C019B01AC0118
:10530000C501B4010E94763BF80118162CF4428ABC
:10531000538A648A758AD3CF828A938AA48AB58A8B
:10532000CECFD091B003F2E3DF9F800111240E5461
:105330001C4FC1E0CD0FC03109F4C0E02090D2066F
:1053400082E3382EC21509F45BC0CC2ED12C3C9CD4
:10535000C0013D9C900D11249C012E543C4F7901BD
:10536000F8014288538864887588F9018288938897
:10537000A488B588A5019401C301B2010E945439E3
:1053800087FF24C0F801628D738D848D958D9B01FC
:10539000AC010E945F38F801268D378D40A151A1E4
:1053A0000E94B63BA30192010E945F382B013C0191
:1053B0009B01AC01C501B4010E94763B181634F480
:1053C000F701428A538A648A758ADC2F3C9CF0017B
:1053D0003D9CF00D1124EE54FC4F26893789408DF9
:1053E000518D62897389848995890E94543981110C
:1053F00001C0DC2FCF5FC03109F4C0E08701A2CF2C
:10540000D093B003DF91CF911F910F91FF90EF9058
:10541000DF90CF90BF90AF909F908F907F906F90D4
:105420005F904F903F902F9008951F93CF93DF93FD
:10543000142F20E030E040EA51E40E94B63B0E9485
:105440003D390E94D739EB012097D1F080911B01A3
:10545000811116C0111103C00E94C51406C00E941C
:10546000151180911C0181FD0BC02FEF80E792E0A8
:10547000215080409040E1F700C000002197E4CF28
:10548000DF91CF911F91089580918E0784FD1CC0FC
:1054900080E10E94FA1C0E9483192D9890911A01B4
:1054A000892F8C7221F480911E01867069F09430EE
:1054B00031F480918F07811105C086E001C083E03F
:1054C0000E94EA1C0C943E1608958F929F92AF9210
:1054D000BF92CF92DF92EF92FF920F931F93CF93E1
:1054E000DF937C016B01DC01CC91D0E0FE01E8563A
:1054F000F84F80818D3229F4EF012296818101E0FD
:1055000009C08B3219F0C756D84F03C0EF0122965D
:10551000818100E0912CF0E010E020E030E0A90172
:105520005E01E0EDE80FEA30D0F4FF5FF93098F467
:1055300091101150A5E0B0E00E94073DDC01CB01C5
:10554000880F991FAA1FBB1F9C01AD012E0F311D93
:10555000411D511D0AC0911008C01F5F06C0EE3FDB
:1055600041F4911006C0992493942196D5018C9111
:10557000D7CFFF2309F44FC0CA01B9010E94063AF0
:105580004B015C0120E030E0A9010E9454398823DE
:1055900049F11F3F64F42AE037ED43E25CE3C501C3
:1055A000B4010E94B63B4B015C011E5FF2CF1F3F6E
:1055B00059F42DEC3CEC4CEC5DE3C501B4010E94C8
:1055C000B63B4B015C010EC0112361F020E030E0DE
:1055D00040E251E4C501B4010E94B63B4B015C01BD
:1055E0001150F2CF002351F0B7FAB094B7F8B0944D
:1055F000F60180829182A282B38206C0D6018D928A
:105600009D92AD92BC921397C859D740C150F701F3
:10561000C08381E001C080E0DF91CF911F910F91A5
:10562000FF90EF90DF90CF90BF90AF909F908F90C2
:105630000895CF93DF93CDB7DEB763970FB6F89495
:10564000DEBF0FBECDBF10920F021092100210925B
:1056500011021092120280917C008F7D80937C0059
:1056600080917C00806480937C0080917C00807FAE
:1056700080937C0080917C00886080937C00809186
:105680007A00806880937A0080917A0080628093AB
:105690007A0080917B00887F80937B0080917A00E4
:1056A000876080937A0080917A00886080937A0086
:1056B000789480917A00806480937A001092B1008F
:1056C00082E88093B20017BA81E080937000109254
:1056D000B00085E08093B10010920B0210920C0292
:1056E00010920D0210920E02109207021092080200
:1056F0001092090210920A02109203021092040200
:1057000010920502109206021092FF011092000200
:1057100010920102109202021092FE011092FD01FD
:105720003998419A80917C00807F80937C008091A1
:105730007A00806480937A008091C00082608093B8
:10574000C0001092C50080E18093C4008091C10028
:1057500088698093C10080E090E00E94DC278A3055
:1057600009F06CC545E550E061E070E08CE291E045
:105770000E94E427892B09F461C58AB18C618AB93A
:105780008AB1806E8AB93C9A3B9A809181008F7E63
:105790008093810080918100886080938100809156
:1057A00080008C7F80938000809180008F70809338
:1057B000800080916E00887F80936E0014BC15BCC1
:1057C00080916E00816080936E008CE0E1E0F1E0FA
:1057D000DF011D928A95E9F7789410921A01809161
:1057E000710184FF03C081E080931A01ADE02A2E8D
:1057F000A1E03A2E99249394FE013696FB8BEA8B16
:1058000080911A0192E1AAE1B1E01D929A95E9F71F
:1058100080931A0184E68093220180932301809370
:1058200024018CE0F10111928A95E9F71092190197
:1058300010928E0710928F07109290071092910786
:105840008091B3028093B20280E4A1E8B1E01D929E
:105850008A95E9F765EA71E080E00E94FD198111FF
:1058600003C087E00E94561B0E94B119259A2D980B
:105870000E9460273D98459A80E00E94C50F0E94D3
:10588000B7280E9463250E9404110E94772787EFA2
:1058900091E00E94B8102898209134013091350190
:1058A000409136015091370160E074E284E799E459
:1058B0000E945E392DEC3CEC4CE45EE30E945E39C4
:1058C0000E94D7397093FE016093FD0180917101B0
:1058D00083FF10C00E944027882361F090921A0134
:1058E00081EF91E00E94B81080E991E00E94B81029
:1058F0000E94FF1080911A01817899F081EF91E068
:105900000E94B8108BEC91E00E94B8100E94FF102A
:1059100090921A0100E010E0E2E0EE2EF4E08F2E0B
:105920000BC010921A010E94AA1CF4CF8091980714
:10593000811135C000E010E09091B2028091B30275
:10594000981309C00E94BD0F0E94C51480911B01CD
:10595000882391F355CFE92FF0E0EF5CFD4F808174
:105960009F5F913809F490E09093B2028F3F51F31A
:105970008A3019F08D3009F03BC40E94C514809123
:105980001B0181113DCFE02FF0E0E856F84F108267
:10599000B12FB170FB2E10FFC9CF8BE023C484322E
:1059A00009F01BC4998A80919907833409F134F472
:1059B000882361F0843209F006C11AC08A3459F094
:1059C0008835B1F0873409F0FEC012C08FE592E04F
:1059D0000E94B810FEC380911A018F7D09F0E9C3BF
:1059E00080919A078D3309F0ECC30E941202E4C340
:1059F00090919A079111E5C3833409F4B2C01CF465
:105A0000843239F0E6C3873469F0883509F4C9C0B7
:105A1000E0C380911A018871F82E09F0CAC30E9470
:105A2000621BD7C389E592E00E94B8108091810182
:105A30008C3838F085E592E00E94B81080918101A1
:105A40008A580E94921086E492E00E94B8108091D9
:105A500087018A5C0E94921086E492E00E94B8104E
:105A6000809185018F5E0E94921086E492E00E94F0
:105A7000B81080918301E5E1E81B8E2F0E949210FF
:105A800086E492E00E94B81080918401865A0E94B8
:105A9000921086E492E00E94B81080918201FEE5A7
:105AA000F81B8F2F0E94921080918801882399F013
:105AB00089E492E00E94B81080918801833029F037
:105AC0008E3139F0823039F404C080E30E943A1BF1
:105AD00002C00E94921089E492E00E94B810809166
