:100000000C9409020C941B020C941B020C942A27DA
:100010000C944A1D0C941B020C941B020C941B02A2
:100020000C941B020C94B0250C941B020C947316B8
:100030000C941B020C941B020C941B020C941B02CC
:100040000C942C160C941B020C94861A0C941B1BFB
:100050000C941B020C9410270C941B020C941B0292
:100060000C941B020C941B02CA30D030D330D63013
:10007000DB30E330EB30863186318631F830FB30CF
:1000800004310D31863186318631863186318631B3
:10009000193123312F3137313A3143314C3152311B
:1000A000863186315B3164316F31F303860F860F01
:1000B000FD03080413041E04860F2204860F300477
:1000C000860F3A0444044E04860F860F860F5E04A2
:1000D0006B047804CF1AD11A0A1B0A1B0A1B0A1BCD
:1000E0000A1B0A1B0A1B0A1B0A1B0A1BD71AD91A4E
:1000F000DB1ADD1ADF1AE11AE31AE51A0A1BE91AFC
:10010000EB1AED1AEF1AF11AF31A0A1BF51A084A3C
:10011000D73B3BCE016E84BCBFFDC12F3D6C74311B
:100120009ABD56833DDA3D00C77F11BED9E4BB4C72
:100130003E916BAAAABE000000803F05A84CCDB23C
:10014000D44EB93836A9020C50B9918688083CA61D
:10015000AAAA2ABE000000803F000D0A4772626C06
:1001600020312E3168205B27242720666F7220689B
:10017000656C705D0D0A00244E005B4F50543A00D0
:100180005B5645523A312E31682E32303139303893
:1001900033303A005B544C4F3A005B4739323A00F7
:1001A0003330003238005B4700204700204D0020EC
:1001B000530020460020540033382E005B47433A5A
:1001C00047005B484C503A24242024232024472015
:1001D000244920244E2024783D76616C20244E78DA
:1001E0003D6C696E6520244A3D6C696E6520245320
:1001F0004C50202443202458202448207E202120B5
:100200003F206374726C2D785D0D0A005B43484596
:10021000434B53554D5F4641494C5552455D0D0A80
:1002200000536C656570696E6700526573746F7218
:10023000696E67207370696E646C650052657374D3
:100240006F72696E672064656661756C74730050C7
:10025000676D20456E6400436865636B204C696D73
:1002600069747300436865636B20446F6F72004468
:10027000697361626C656400456E61626C656400FF
:1002800043617574696F6E3A20556E6C6F636B6570
:100290006400272448277C2724582720746F207562
:1002A0006E6C6F636B00526573657420746F2063AE
:1002B0006F6E74696E7565005B4D53473A00414C33
:1002C00041524D3A00207D0066616C736500747286
:1002D0007565002C20224152435F4F4B223A20008B
:1002E00066616C73650074727565002C2022494E3E
:1002F0005F4D4F54494F4E223A20002C202241445A
:1003000043223A2000207D2C202246454544223AB3
:1003100020002C227A223A20002C2279223A200036
:10032000207D2C2022574353223A207B2022782202
:100330003A20002C227A223A20002C2279223A20DC
:10034000002C20224D4353223A207B202278223A4F
:10035000200022535441545553223A2022556E6BAB
:100360006E6F776E220022535441545553223A2027
:1003700022486F6C64220022535441545553223A50
:1003800020224A6F67220022535441545553223A87
:10039000202252756E220022535441545553223A62
:1003A000202249646C652200207B20000D0A005B3E
:1003B0005052423A006572726F723A0000007A43FE
:1003C00000007A4300007A430000FA430000FA4339
:1003D0000000FA4300A00C4700A00C4700A00C4707
:1003E000000048C3000048C3000048C30A000019C9
:1003F000010AD7233C6F12033B00007A440000003F
:100400000000000000C8410000FA43FA000000802C
:100410003F0011241FBECFEFD8E0DEBFCDBF27E0E5
:10042000A0E0B1E001C01D92AC38B207E1F70E9434
:10043000322B0C940D3E0C9400002F923F924F9261
:100440005F926F927F928F929F92AF92BF92CF9264
:10045000DF92EF92FF920F931F93CF93DF93CDB76D
:10046000DEB7CA54D1090FB6F894DEBF0FBECDBFB8
:100470008AE3E9EDF1E0DF011D928A95E9F78BE06F
:10048000E9E9F1E0AAEDB1E001900D928A95E1F77A
:1004900080913C07843211F00C94A70F81E0809387
:1004A000DA011092DB0183E08A8FB1E0BBA3212C3B
:1004B000312C1CA61BA610E01B8E1F8EEE24E3948D
:1004C000F12CEAE0AE2EB12CF1E68F2EF3E09F2E58
:1004D0008A8DE82FF0E0E45CF84FD080DD2009F44D
:1004E00037C29FEB9D0D9A3110F00C94760F8F5F01
:1004F0008A8FBE016A5E7F4FCE014A960E947E2A95
:10050000882311F40C94780F4E885F88688C798C5E
:10051000C301B2010E94783D0E94B63A062F70E0F6
:1005200080E090E00E94E73A9B01AC01C301B20178
:100530000E943D3920E030E048EC52E40E94953CB6
:100540000E94023D0E94B63ACB01E7E4DE1629F094
:10055000FDE4DF1609F4EAC035C1083209F4C6C06B
:1005600020F5043168F4013108F08AC0043009F440
:1005700052C008F464C00A3009F445C00C94860FD8
:100580000C3109F440C050F4063110F00C94860F81
:1005900025E1201B2093DC0126E0ADC00E3199F14E
:1005A000063209F44CC00C94860F0D3309F498C040
:1005B000A8F4053381F140F40B3209F47AC0013319
:1005C00009F477C00C94860F0C3310F00C94860F4E
:1005D0006AEC600F6093E00129E08DC00C3538F4BF
:1005E0000A3508F053C0003581F10C94860F0C35A4
:1005F00051F00F3510F00C94860F2EE5201B209340
:10060000DB0125E078C0009731F42F8D21110C9487
:100610007A0F31E03F8F0093D901202F2D7F2C31AD
:1006200019F00C3509F064C0009721F00A9711F019
:100630000C94860F600F6093D90120E061C04F8D4C
:1006400041110C947A0FA2E0AF8F0093DA010632C9
:1006500009F050C08431910559F08E31910541F077
:100660008832910529F08233910511F00C94860FA0
:10067000B5010E94AA3D66576093DA0121E040C0AF
:100680006FEE600F6093DE0122E035C0892B31F4FC
:1006900066EA600F6093DD0123E032C06A307105C5
:1006A00011F00C94860F0A3511F40C94860F24E097
:1006B00027C0BF8DB1110C947A0F013331F4109221
:1006C000DF0128E0E3E0EF8F1BC00A9711F00C94E4
:1006D000860FF1E0F093DF0128E033E03F8F10C098
:1006E000892B11F00C94860F2AE00AC027E003C082
:1006F00020E001C021E0892B19F087E10C94AE0FB6
:10070000C70102C0880F991F2A95E2F72BA53CA5C7
:1007100028233923232B19F085E10C94AE0FABA5C8
:10072000BCA5A82BB92BBCA7ABA7D2CE892B29F788
:10073000063018F4033058F016C0083010F40C944A
:10074000860F0A30F0F00E3159F00C94860F00231A
:1007500019F0013011F104C0B3E0B093E1011DC004
:100760000093E1011AC0043021F0053031F080E13E
:1007700001C080E28093E30102C01092E3018CE0AB
:100780000DC0093031F08091E20180648093E20174
:1007900002C01092E2018DE001C08BE0F70102C0BF
:1007A000EE0FFF1F8A95E2F72BA53CA52E233F23D2
:1007B000232B09F0B1CF2BA53CA52E2B3F2B3CA71B
:1007C0002BA786CE8D2DDD0C990BAA0BBB0BFC0144
:1007D000E654F109E531F10510F00C94860FEB5A5F
:1007E000FF4F0C94E03D4092E5015092E60160928B
:1007F000E7017092E80180E087C04092E9015092E1
:10080000EA016092EB017092EC01116081E07CC022
:100810004092ED015092EE016092EF017092F00172
:10082000126082E071C04092F1015092F201609238
:10083000F3017092F401146083E066C00093F50147
:1008400084E062C0C301B2010E94AF3A6093F60136
:100850007093F7018093F8019093F90185E054C0FB
:100860004092FA015092FB016092FC017092FD01EE
:1008700086E04AC04092FE015092FF016092000261
:100880007092010287E040C040920202509203023F
:10089000609204027092050288E036C020E030E0E9
:1008A0004FE753E4C301B2010E94553C181614F4FB
:1008B0000C947C0F0093060289E026C04092070248
:1008C000509208026092090270920A023B8D3160D8
:1008D0003B8F8AE019C040920B0250920C0260924A
:1008E0000D0270920E024B8D42604B8F8BE00CC05C
:1008F00040920F0250921002609211027092120206
:100900008B8D84608B8F8CE06701082E02C0CC0C2D
:10091000DD1C0A94E2F7960122213321232B11F0EA
:100920000C947E0FD40102C0B595A7958A95E2F785
:10093000A0FF0BC020E030E0A901C301B2010E947A
:10094000333A87FF02C00C94800F2C283D28C0CD7D
:10095000BB8DBB2329F0EF8DE11102C0F2E0FF8FC8
:1009600025FE0FC08091F6019091F701A091F8014A
:10097000B091F90181389649A849B10514F00C9459
:10098000820F3BA1332329F020FC02C00C948C0F72
:1009900018C08091DB01813071F44F8D4230E1F558
:1009A0008091DA018035C1F18823B1F120FC02C0C9
:1009B0000C948C0F31C080919A0181112DC020FEC2
:1009C0001BC08091DC01813039F523E333E34BEC2C
:1009D00051E46091E5017091E6018091E701909109
:1009E000E8010E94953C6093E5017093E6018093D5
:1009F000E7019093E80110C08091A8019091A901AE
:100A0000A091AA01B091AB018093E5019093E6011A
:100A1000A093E701B093E80130FC10C08091A401DD
:100A20009091A501A091A601B091A7018093020227
:100A300090930302A0930402B09305028091D90120
:100A4000843039F426FC03C08CE10C94AE0FE8949A
:100A500026F88091DE01882369F0813029F48FAF78
:100A60001DAE92E09BAF0BC01FAEA2E0ADAFB1E0F8
:100A7000BBAF05C0E2E0EFAFF1E0FDAF1BAE809190
:100A8000DC01813021F02F8D2330C9F52FC069EDB5
:100A9000C62E61E0D62EE12CF12C3B8DA32EB12C7D
:100AA000C5010E2C02C0959587950A94E2F780FF48
:100AB00012C023E333E34BEC51E4D6019E966D91D3
:100AC0007D918D919C91D1970E94953CF60166A7EE
:100AD00077A780AB91ABFFEFEF1AFF0A24E0C20EBD
:100AE000D11C33E0E316F104D9F6CDCF8091DF01BC
:100AF000813029F44B8D443011F00C94840F8CE03C
:100B0000EDEBF1E0DE01119601900D928A95E1F78F
:100B10008BA59CA591FD08C00091D9010A30C9F0B0
:100B20000C3509F4B3C01EC18091E001873018F084
:100B30008DE10C94AE0F90919F01891769F3BE016E
:100B40006F5F7F4F0E94081A882311F40C949A0F4C
:100B5000E3CF9B8D911103C08AE10C94AE0FC101CC
:100B600080759927892B09F46FCF6091FA017091F4
:100B7000FB018091FC019091FD010E94783D0E9453
:100B8000B63A6730A8F68091F501843141F08230A1
:100B900011F00C94860F27FE02C00C94860FAFEA6A
:100BA0002A22662319F0615069A703C0B091E001C1
:100BB000B9A769EE71E089A50E94081A882311F48B
:100BC0000C949A0F0091F5014090D5015090D601F8
:100BD0006090D7017090D80149EDE42E41E0F42EE9
:100BE00059E9A52E51E0B52EC12CD12CEB8D8E2EBE
:100BF000912CC4010C2C02C0959587950A94E2F7BC
:100C000080FF35C0043151F5D501D0962D913D912D
:100C10004D915C91D39758966D917D918D919C915A
:100C20005B970E943D39F70126A537A540A951A938
:100C30000E943D39D70150966D937D938D939C937F
:100C40005397B2E0CB1213C0A30192010E943D3929
:100C5000F701608B718B828B938B09C0F70186A59E
:100C600097A5A0A9B1A9808B918BA28BB38BFFEF25
:100C7000CF1ADF0A24E0E20EF11C34E0A30EB11C0F
:100C800043E0C416D10409F0B4CF3FC18B8D882353
:100C900009F462CF4090D5015090D6016090D70101
:100CA0007090D80129E9822E21E0922EDE01119662
:100CB0007D0139EDC32E31E0D32EA12CB12CE82FCC
:100CC000F0E0F8A7EFA38FA198A50A2C02C0959594
:100CD00087950A94E2F780FF29C0D7012D913D91B5
:100CE0004D915C91F401608D718D828D938D0E9488
:100CF0003D39D6019E962D913D914D915C91D197B4
:100D00000E943D39F60166A777A780AB91ABF2E070
:100D1000AF1216C0A30192010E943D39D6019E96E2
:100D20006D937D938D939C93D1970AC0F40180A914
:100D300091A9A2A9B3A9F60186A797A7A0ABB1ABC9
:100D4000FFEFAF1ABF0A24E0820E911C34E0E30EDD
:100D5000F11C44E0C40ED11C83E0A816B10409F0D4
:100D6000B2CFD2C09F8D933069F40E3109F494C094
:100D7000053309F4C3C00C3109F0C6C069EE71E057
:100D800086E08DC0AB8DAA2381F3B091DD01BFA3B6
:100D90004090D5015090D6016090D7017090D80155
:100DA00089E9A82E81E0B82E99EDE92E91E0F92E7F
:100DB000FE0131964F01C12CD12C2A2F30E03AA7E9
:100DC00029A789A59AA50C2C02C0959587950A9408
:100DD000E2F780FD0BC0F501808D918DA28DB38D62
:100DE000F70186A797A7A0ABB1AB44C0053309F4C0
:100DF00041C0FFA1F1112BC0D501D0962D913D919D
:100E00004D915C91D397F4016081718182819381CE
:100E10000E943E39D7019E962D913D914D915C9156
:100E2000D1970E943E39F70166A777A780AB91ABB7
:100E3000F2E0CF121FC0A30192010E943E39D701F8
:100E40009E966D937D938D939C93D19713C0F501DE
:100E5000208D318D428D538DD7019E966D917D9160
:100E60008D919C91D1970E943E39F70166A777A793
:100E700080AB91ABFFEFCF1ADF0A24E0A20EB11CCA
:100E800034E0E30EF11C44E0840E911C83E0C816AC
:100E9000D10409F096CF69CF69EE71E087E00E9436
:100EA000081A882311F40C949A0F9B8D911103C09A
:100EB00019A61F8E2AC0A9E9B1E0E9EDF1E080E0B2
:100EC00090E04B8D242F30E0A901082E02C05595EB
:100ED00047950A94E2F740FD0AC058964D915D91FE
:100EE0006D917C915B97408B518B628B738B0196DC
:100EF000149634968330910539F706C08091DA0153
:100F0000823010F00C94880F19A68091DA018FA31B
:100F1000803529F49B8D91110C948A0F7AC2AF8D84
:100F2000A23009F076C2BFA1B11104C0EB8DE1116E
:100F300070C22AC020E030E0A9016091E501709103
:100F4000E6018091E7019091E8010E94333A8823FD
:100F500009F4E2C7FFA1FC3809F445C240F4F230BD
:100F6000A9F0F330B1F0F13009F053C20AC02FA15B
:100F70002E3809F438C208F433C22F3809F430C2CD
:100F800048C23B8D311145C21F8E43C24BA1446004
:100F90004BA38B8D882309F4DFCDBBADAB2FB0E025
:100FA000B8ABAFA7FDADEF2FF0E0FCABEBAB81E052
:100FB00090E07C010BAC02C0EE0CFF1C0A94E2F73F
:100FC0000DAC02C0880F991F0A94E2F7E82AF92AAB
:100FD0002B8D822F90E08E219F21892B09F49EC7B3
:100FE000FD01EE0FFF1FEE0FFF1FE752FE4FAA0F8E
:100FF000BB1FAA0FBB1FAF54BE4F2D913D914D910A
:101000005C9166A577A580A991A90E943D392B0125
:101010003C01EBA9FCA9EE0FFF1FEE0FFF1FE752EB
:10102000FE4FABA9BCA9AA0FBB1FAA0FBB1FAF5491
:10103000BE4F2D913D914D915C9166A577A580A9FC
:1010400091A90E943D394B015C01610130E8C32246
:10105000DD2427FEF5C0E89427F84CE050E067E077
:1010600072E081EB91E00E94003E892B11F481E255
:1010700075C78091DC018130B1F423E333E34BEC9D
:1010800051E46091FE017091FF0180910002909106
:1010900001020E94953C6093FE017093FF018093D2
:1010A0000002909301028091FE019091FF01A091B6
:1010B0000002B09101028FAB98AFA9AFBAAFA30104
:1010C0009201C301B2010E94953C27966CAF7DAF9F
:1010D0008EAF9FAF2797A5019401C501B4010E946F
:1010E000953C2B966CAF7DAF8EAF9FAF2B9720E0DA
:1010F00030E040E850E46FA978AD89AD9AAD0E9428
:10110000953C2FA938AD49AD5AAD0E94953C279624
:101110002CAD3DAD4EAD5FAD27970E943D392B966E
:101120002CAD3DAD4EAD5FAD2B970E943D396B01AF
:101130007C0120E030E0A9010E94333A87FDF0C62F
:10114000C701B6010E94343D6B017C012B962CAD8A
:101150003DAD4EAD5FAD2B9727966CAD7DAD8EADA1
:101160009FAD27970E943E390E94343D9B01AC0100
:10117000C701B60190580E943D3A6B017C019FA1C6
:10118000933021F4F7FAF094F7F8F09420E030E08F
:10119000A9016FA978AD89AD9AAD0E94333A87FF56
:1011A00011C0F7FAF094F7F8F0948FA998ADA9ADB3
:1011B000BAADB0588093FE019093FF01A093000256
:1011C000B09301020FA518A9000F111F000F111FE6
:1011D00007511E4FA7019601C501B4010E94953C1D
:1011E0009B01AC01C301B2010E943D3920E030E017
:1011F00040E05FE30E94953CD8016D937D938D9311
:101200009C9313970BA91CA9000F111F000F111F0E
:1012100007511E4FA7019601C301B2010E94953CE0
:10122000A50194010E943E3920E030E040E05FE3F8
:101230000E94953CF8016083718382839383E9C0A7
:10124000212F30E038AF2FABE222F322EF2809F450
:1012500069C631EF23228091DC01813009F47BC023
:10126000EFA5F8A9EE0FFF1FEE0FFF1FE751FE4F8E
:10127000C080D180E280F380A7019601C301B20152
:101280000E943D392B013C01EBA9FCA9EE0FFF1F89
:10129000EE0FFF1FE751FE4F80819181A281B38144
:1012A0008FA798ABA9ABBAAB9C01AD01C501B40146
:1012B0000E943D394B015C01A3019201C301B201BF
:1012C0000E94953C2B013C01A5019401C501B4018C
:1012D0000E94953C9B01AC01C301B2010E943E39C2
:1012E0000E94343D4B015C01A7019601C701B60184
:1012F0000E94953C6B017C012FA538A949A95AA9E8
:10130000CA01B9010E94953C9B01AC01C701B6011D
:101310000E943E390E94343D6B017C016093FE01C6
:101320007093FF0180930002909301029B01AC0136
:10133000C501B4010E943D394B015C01E894B7F846
:101340002AE037ED43EA5BE3C501B4010E94553C56
:1013500018164CF15EC009ED11E08FA998AD0C2C68
:1013600002C0959587950A94E2F780FF12C023E3A7
:1013700033E34BEC51E4D80150966D917D918D9102
:101380009C9153970E94953CF801608B718B828BE6
:10139000938BFFEFCF1ADF0A0C5F1F4F23E0C216BB
:1013A000D104D9F65DCF20E030E040E05FE3C50135
:1013B000B4010E94553C18160CF459CE2FE632E1C8
:1013C00043E85AE3C701B6010E94953C9B01AC017A
:1013D000C501B4010E94553C18160CF448CE19C042
:1013E0003BA130613BA38FA18E58823018F44BA1F2
:1013F00048604BA38B8D882309F4AECB4CE050E0C2
:1014000067E072E081EB91E00E94003E892B09F4D5
:101410002ECE2BA121709BA190FF03C0C1018E7D18
:1014200003C0C1018E7D9C7FAF8DA111937E892B5E
:1014300009F07AC58E01035F1F4F89E0F801119210
:101440008A95E9F7222309F44BC08BA59CA5867BDE
:10145000892B09F06BC58091D901853311F0811179
:1014600065C58091A4019091A501A091A601B091BC
:10147000A701898B9A8BAB8BBC8B9091A201809139
:10148000A101892B4091E5015091E6016091E701AE
:101490007091E8014D875E876F87788B84608D8BB4
:1014A0008091890185FF06C087E092E00E942B327F
:1014B00081113EC5B80187E092E00E9478388091A2
:1014C0003201811139C50E94C028892B09F434C525
:1014D00080E2809332010E94911D0E94DD182CC58C
:1014E00080918901F090A20181FF26C08FA18150D7
:1014F000833018F0FBA1F064FBA32B8D222339F07D
:101500003F8D323021F44BA140684BA315C080E1E0
:10151000F81212C08091990181509BA19074833080
:1015200030F4992349F09BA190629BA305C09111CF
:1015300003C0ABA1A062ABA38091F6019091F7012B
:10154000A091F801B091F9018093AD019093AE01A3
:10155000A093AF01B093B0018091DB0180939A0119
:10156000882311F088E08D8B8091E5019091E60150
:10157000A091E701B091E8018093A8019093A9019F
:10158000A093AA01B093AB018D879E87AF87B88BDC
:101590008090020290900302A0900402B090050295
:1015A000A50194016091A4017091A5018091A6010B
:1015B0009091A7010E94333ABBA1B074EB2E811128
:1015C00003C0EBA1E5FF20C0FF2071F0FBA1F7FDF8
:1015D0000BC0EE2021F040E050E0BA0102C0B5019E
:1015E000A4018F2D0E94E3318091020290910302A9
:1015F000A0910402B09105028093A4019093A501EB
:10160000A093A601B093A701E1100CC08091A401A2
:101610009091A501A091A601B091A701898B9A8B09
:10162000AB8BBC8B809106028093AC018091E3016F
:101630009091A201981751F049895A896B897C8948
:101640000E94E3318091E3018093A2019D89809102
:10165000A201892B8D8BF090E2018091A1018F1561
:1016600069F080913201823029F00E94E4158F2DBB
:101670000E9441288091E2018093A1019D8980917F
:10168000A101892B8D8B8091D901843099F4C09070
:10169000FA01D090FB01E090FC01F090FD018091F7
:1016A0003201823039F00E94E41540E0C701B601F2
:1016B0000E942E2A8091DE0180939D018091DC01A1
:1016C00080939B012F8D233071F58091DF018093F2
:1016D0009E01811108C010920F0210921002109208
:1016E000110210921202C0900F02D0901002E090EE
:1016F0001102F0901202A70196016091D50170913C
:10170000D6018091D7019091D8010E94333A882365
:1017100051F0C092D501D092D601E092D701F0925B
:10172000D8010E9466328091E00190919F01981744
:1017300069F080939F018CE0FE013196ADEBB1E042
:1017400001900D928A95E1F70E9466328091DD0149
:1017500080939C018091D9018632F1F138F48C316B
:1017600009F18E31F9F08A3069F04FC08C35D1F132
:10177000863609F441C0883209F047C061EB71E058
:1017800087E02DC069EE71E089A50E94F41980916F
:101790009F0139A5381339C08CE0E9EEF1E0ADEBDB
:1017A000B1E025C08D8981608D8B4F8D442329F058
:1017B000B80187E092E00E947838B80189EE91E0A4
:1017C0000E9478388CE0E9EEF1E0A1EBB1E0019005
:1017D0000D928A95E1F719C061EB71E086E00E94F5
:1017E000F41913C08CE0E7E0F2E0A9ECB1E001905D
:1017F0000D928A95E1F707C08CE0E9ECF1E0DF019A
:101800001D928A95E9F70E9466328091DA018093F1
:101810009901803509F41CC3BF8DB23009F018C39B
:10182000813021F4BE01635F7F4F06C0811109C082
:101830008D8981608D8BB80187E092E00E947838B5
:10184000FEC28250823008F093C28091FE019091D6
:10185000FF01A0910002B09101028F8F98A3A9A36C
:10186000BAA3ABAD94E0A99F70011124F701EF5426
:10187000FE4FF8A7EFA3970127513E4F3AA729A79C
:10188000D9014D905D906D907C9020813181428195
:101890005381C301B2010E943E396BA77CA78DA77B
:1018A0009EA7EDADB4E0EB9F8001112498012F5469
:1018B0003E4F3CAF2BAFC80187519E4F9EAF8DAFBF
:1018C000DC018D909D90AD90BC90F901208131811B
:1018D00042815381C501B4010E943E396FA778ABA4
:1018E00089AB9AAB77FA709477F87094D501C401FC
:1018F000B0588B8F9C8FAD8FBE8FF701E95FFD4F86
:101900002BA53CA54DA55EA5608171818281938147
:101910000E943D396B017C01F801E95FFD4F2FA565
:1019200038A949A95AA960817181828193810E9455
:101930003D394B015C01A7019601C301B2010E9430
:10194000953C6BAB7CAB8DAB9EABA50194016B8DD5
:101950007C8D8D8D9E8D0E94953C9B01AC016BA969
:101960007CA98DA99EA90E943E396BAB7CAB8DAB47
:101970009EABA5019401C301B2010E94953C4B01AD
:101980005C01A70196016B8D7C8D8D8D9E8D0E94D3
:10199000953C9B01AC01C501B4010E943D392BA9C6
:1019A0003CA94DA95EA90E94BD396B017C019BA198
:1019B00092FF13C02DEB37E346E055EBC701B601AC
:1019C0000E94553C87FD1DC02BED3FE049EC50E4E3
:1019D000C701B6010E943D3912C02DEB37E346E046
:1019E00055E3C701B6010E94333A181654F02BEDA7
:1019F0003FE049EC50E4C701B6010E943E396B015B
:101A00007C0180907D0190907E01A0907F01B0903C
:101A100080012F8D38A149A15AA1CA01B9010E94A4
:101A20003E39A50194010E943D39A50194010E940F
:101A3000953C0E94343D4B015C0120E030E040E0E9
:101A40005FE3C701B6010E94953C2F8D38A149A1E3
:101A50005AA10E94953C9F77A50194010E943D3AAE
:101A60000E94223B0E94B63A7CAB6BABDB01AB2BF6
:101A700009F4D8CE1D894B01A12CB12C13FF12C043
:101A8000C501B4010E94E53A9B01AC016D857E85DC
:101A90008F8598890E94953C6D877E878F87988B6C
:101AA000177F1D8BC501B4010E94E53A4B015C0113
:101AB0009B01AC01C701B6010E943D3A6BA37CA318
:101AC0008DA39EA3EFADB4E0EB9FC00111248C0168
:101AD0000F541E4FFC01E95FFD4FD8012D913D9140
:101AE0004D915C9160817181828193810E943D3929
:101AF000A50194010E943D3A27966CAF7DAF8EAF51
:101B00009FAF27972BA13CA14DA15EA1CA01B901AE
:101B10000E94953C9B01AC0160E070E080E090E4A5
:101B20000E943D396B017C012BEA3AEA4AE25EE30E
:101B30006BA17CA18DA19EA10E94953C4B015C01F3
:101B400020E030E040E850E4C701B6010E943E3991
:101B50009B01AC01C501B4010E94953C6FAB78AF0D
:101B600089AF9AAF20E030E040E05FE3C701B60103
:101B70000E94953C23966CAF7DAF8EAF9FAF2397AD
:101B80001F8E22242394312CEBA9FCA9E215F30526
:101B900009F448CEBF8DBC3008F044C02B8D3C8D7D
:101BA0004D8D5E8D23966CAD7DAD8EAD9FAD239733
:101BB0000E94953C6B017C01A30192016FA978AD55
:101BC00089AD9AAD0E94953CA70196010E943E39CD
:101BD0007B016C01A301920123966CAD7DAD8EADAE
:101BE0009FAD23970E94953C4B015C012B8D3C8D52
:101BF0004D8D5E8D6FA978AD89AD9AAD0E94953CF3
:101C00009B01AC01C501B4010E943D392B013C018F
:101C1000EF8DEF5FEF8F470156018B8E9C8EAD8E5F
:101C2000BE8E65C0B10180E090E00E94E53A2BA134
:101C30003CA14DA15EA10E94953C6B017C010E94DC
:101C4000383A6B8F7C8F8D8F9E8FC701B6010E94B3
:101C5000263D4B015C01A9A5BAA5CD90DD90ED9084
:101C6000FC90F7FAF094F7F8F094ADADBEAD8D911D
:101C70009D910D90BC91A02D8F8F98A3A9A3BAA37D
:101C8000A70196016B8D7C8D8D8D9E8D0E94953C5C
:101C90002B013C012F8D38A149A15AA1C501B401E6
:101CA0000E94953C9B01AC01C301B2010E943E39E8
:101CB0002B013C01A7019601C501B4010E94953C8E
:101CC0006B017C012F8D38A149A15AA16B8D7C8DB0
:101CD0008D8D9E8D0E94953C9B01AC01C701B60184
:101CE0000E943D396B8F7C8F8D8F9E8F1F8EA3013D
:101CF00092016BA57CA58DA59EA50E943E39EFA102
:101D0000F8A560837183828393832B8D3C8D4D8DE9
:101D10005E8D6FA578A989A99AA90E943E39ABADBD
:101D2000BCAD6D937D938D939C93139727962CADAB
:101D30003DAD4EAD5FAD2797F80160817181828125
:101D400093810E943E39D8016D937D938D939C932E
:101D50001397BE01635F7F4F81EB91E00E9478385B
:101D60008091330181116BC0BFEF2B1A3B0A0CCF5E
:101D70008D8984608D8B80913201823009F45FC03F
:101D80000E94E41580913301811162C0FBA1F071C2
:101D9000FF2E109237012BA123FB882780F90E9488
:101DA000D00F86B1807290911801891749F084E0B4
:101DB0000E94F51C0E94D01480E00E94D00F48C001
:101DC000B80187E092E00E94783881E08093310189
:101DD00082E00E94051D0E94D01480913301811180
:101DE00037C0809132018111F6CF8091310181306D
:101DF00081F4FF2051F08CE0E9E1F1E0A5E2B1E0EF
:101E000001900D928A95E1F707C085E00E94F51CCC
:101E100003C081E0809337011092310180E00E947D
:101E2000D00F0E94D0140E946E250E94D0280E94DC
:101E30000F110E9401328091370181118CC08CE01A
:101E4000E7E0F2E0A1EBB1E001900D928A95E1F7B5
:101E50008091E1018093A001882309F47FC00E9452
:101E6000E4158091A00190913201833041F49230C9
:101E7000D1F188E00E94051D0E94D01434C081E099
:101E80008093990110929D0110929C0110929A01E9
:101E900010929F011092A2011092A10184E68093FA
:101EA0003A0180933B0180933C01923091F06DEBBD
:101EB00071E080E00E94081A8823E1F10E946632F6
:101EC00040E050E0BA0180E00E94991980E00E9451
:101ED000412888EB92E00E94C3108FE492E00E94B8
:101EE000C3100E940A111092A0012FC081E036C0D9
:101EF00082E034C088E132C086E230C089E12EC081
:101F000084E02CC08BE12AC085E228C084E126C091
:101F10008EE124C08FE122C086E120C080E21EC095
:101F200082E21CC083E21AC084E218C080E116C0BD
:101F30008FE014C087E012C08CE0E7E0F2E0A1EB94
:101F4000B1E001900D928A95E1F780E007C01A8E0A
:101F50001BA20C9457020E9490277ACFC65BDF4FDA
:101F60000FB6F894DEBF0FBECDBFDF91CF911F91AA
:101F70000F91FF90EF90DF90CF90BF90AF909F9028
:101F80008F907F906F905F904F903F902F9008952B
:101F90000E94C028892B19F082E00C94051D089539
:101FA000109218019091890197FD03C090E29093DF
:101FB0001801882331F09091180180E289278093DD
:101FC000180108958F929F92AF92BF92CF92DF92A5
:101FD000EF92FF920F931F93CF93DF93CDB7DEB7AE
:101FE0002D970FB6F894DEBF0FBECDBF6B017C01FD
:101FF000042F20E030E0A9010E94333A87FF07C098
:102000008DE20E94451BF7FAF094F7F8F094102F38
:10201000123060F020E030E048EC52E4C701B60135
:102020000E94953C6B017C011250F2CF00FF0AC068
:1020300020E030E040E251E4C701B6010E94953C47
:102040006B017C0120E030E040E05FE3C701B601B6
:102050000E943E390E94AF3A10E03AE0832E912C64
:10206000A12CB12C611571058105910591F0EE242B
:10207000E394F12CEC0EFD1EE10EF11CA501940180
:102080000E94BE3D605DF7016083B901CA011F5F18
:10209000E9CF80E3101748F4E1E0F0E0EC0FFD1F1A
:1020A000E10FF11D80831F5FF5CF101313C0FE01F8
:1020B000E10FF11D80E381831F5F0CC0101303C08B
:1020C0008EE20E94451BFE01E10FF11D80810E94FE
:1020D000451B11501111F2CF2D960FB6F894DEBFAB
:1020E0000FBECDBFDF91CF911F910F91FF90EF9069
:1020F000DF90CF90BF90AF909F908F9008952091E8
:10210000890120FF08C02BE832E441E25DE30E9430
:10211000953C41E001C040E00C94E20F2091890120
:1021200020FF08C02BE832E441E25DE30E94953CC9
:1021300044E001C043E00C94E20FCF93DF93843678
:1021400030F06AE00E949E3DC0E3C90F03C0C0E0CA
:102150008A3030F06AE00E949E3DD0E3D90F01C082
:10216000D0E0805D0E94451BDD2319F08D2F0E9479
:10217000451BCC2329F08C2FDF91CF910C94451B6C
:10218000DF91CF910895CF93DF93FC018491EF010C
:102190002196882321F00E94451BFE01F7CFDF9195
:1021A000CF9108958CEA93E00C94C310CF92DF9204
:1021B000EF92FF92CF93DF93D82F6A017B01C22F5A
:1021C00084E20E94451B8D2F0E949D108DE30E948A
:1021D000451B4C2FC701B6010E94E20FDF91CF9142
:1021E000FF90EF90DF90CF900C94D210CF93DF93BD
:1021F000D82FC62F84E20E94451B8D2F0E949D1070
:102200008DE30E94451B8C2F0E949D10DF91CF9182
:102210000C94D2108DE50E94451B0C94D210E9E17C
:10222000F1E0A5E1B2E041915191619171914D933D
:102230005D936D937D9381E0E532F807A1F70895F2
:102240003F924F925F926F927F928F929F92AF9246
:10225000BF92CF92DF92EF92FF920F931F93CF9393
:10226000DF93CDB7DEB7AE970FB6F894DEBF0FBEE3
:10227000CDBF10913307112391F181E0809332019A
:102280008EEB92E00E94C310812F0E949D100E944D
:10229000D21085EF91E0019739F0EFE9FFE0319737
:1022A000F1F700C00000F7CF1150123030F08FB7B7
:1022B000F894109233078FBF12C088EB92E00E940F
:1022C000C31086EA92E00E94C3100E940A1180E1C6
:1022D0000E94FB1C8091320784FFFCCFE8CF109155
:1022E0003207112309F429C214FF04C081E080934E
:1022F00033013EC310FF2DC18CE0E9E1F1E0DE01C6
:10230000599601900D928A95E1F7BE01675E7F4F65
:10231000CE010D960E940E1D88EA93E00E94C31024
:1023200080913201883069F028F4811110C087E96A
:1023300093E00FC0803141F0803249F487E793E0A9
:1023400008C087E893E005C086E693E002C082E516
:1023500093E00E94C31081E493E00E94C3106D8556
:102360007E858F8598890E948E108AE393E00E9473
:10237000C31069897A898B899C890E948E1083E3B6
:1023800093E00E94C3106D897E898F89988D0E9489
:102390008E104090D5015090D6016090D70170907A
:1023A000D8016DEBA62E61E0B62E9E012F5F3F4F48
:1023B0006901CE010D967C0100E0F50161917191FA
:1023C000819191915F0120853185428553850E94DD
:1023D0003E394601F6016083718382839383023024
:1023E00049F4A30192010E943E39F6016083718392
:1023F00082839383F4E0CF0ED11CF40120813181DC
:1024000042815381F70160817181828193810E94B1
:102410003D39F70161937193819391937F010F5F30
:10242000033059F680E293E00E94C3106D857E85EB
:102430008F8598890E948E1089E193E00E94C310D5
:1024400069897A898B899C890E948E1082E193E048
:102450000E94C3106D897E898F89988D0E948E108D
:1024600085E093E00E94C310809132018C7749F09F
:102470006091190770911A0780911B0790911C07B2
:1024800003C060E070E0CB010E947F108BEF92E010
:102490000E94C310609113027091140280E090E0DA
:1024A000611571058105910521F480E30E94451BAA
:1024B0002BC020E05AE0852E912CA12CB12C01E0FC
:1024C000020F45E2E42EF12CEC0EFD1EE20EF11C93
:1024D000A50194010E94BE3DF7016083B901CA01C4
:1024E000202F611571058105910549F7002361F0E1
:1024F000E4E2F0E0EC0FFD1FE00FF11D8081805D54
:102500000E94451B0150F2CF8BEE92E00E94C31057
:102510008091B602882319F086EE92E002C080EE28
:1025200092E00E94C31083ED92E00E94C310319BA1
:1025300003C08EEC92E002C088EC92E00E94C310CF
:1025400085EC92E00E94C3100E94D21081E00E94AC
:10255000FB1C812F887E09F467C080913201982F7F
:10256000937009F050C08872A1F080913401807C92
:1025700081F40E944A2582E08093360180913201E5
:10258000803239F417FDF2C1809134018068809364
:10259000340180913201811103C091E090933401A4
:1025A00016FF07C085FD05C090913401906490939B
:1025B000340113FF05C0807E19F480E1809332015D
:1025C00015FF21C088EB92E00E94C31084E692E0E0
:1025D0000E94C3100E940A118091340187FD0EC031
:1025E00090913201903439F483FFBCC1837E8260C4
:1025F00080933401B7C1903809F0B4C1809134019F
:1026000080628093340117FF0CC0809132018130C9
:1026100029F48091340185608093340180E88093AF
:10262000320188EE0E94FB1C11FF44C0812F887686
:10263000F1F580913201803471F48091340185FD8F
:102640000AC084FF03C01092320105C082FF03C09C
:1026500088608093340180913201882381F084FF67
:1026600026C09091340190FF22C0803141F48091C6
:102670003D01882321F0886080933D0118C01092AD
:1026800036010E94C028892B71F08091340186FDAB
:102690000AC01092340188E0809332010E94911D9B
:1026A0000E94DD1804C0109234011092320182E0C1
:1026B0000E94FB1C12FF41C080913201807D9091ED
:1026C00034018823D9F080913501811117C097FD1D
:1026D00015C00E944A2580915503809354030E949F
:1026E000E1288091360181FF05C09091340191600D
:1026F00090933401897F809336011CC097FF0AC0F4
:10270000109236010E94D0280E946E250E949027C8
:102710000E940F118091340185FF08C08F7781607E
:102720008093340180E48093320104C0109234011C
:102730001092320184E00E94FB1C9091340799238F
:1027400009F4ABC08FB7F894109234078FBF409153
:102750003A0190FF02C084E601C0842F91FD865F9C
:1027600092FD8A5093FD8F5F94FD8150893C08F063
:1027700088EC8A3008F48AE030913B0195FF02C072
:1027800024E601C0232F96FD22E397FD29E148139B
:1027900003C0231709F481C080933A0120933B01C1
:1027A00010923E01109155033090760689E9D82E9B
:1027B00096E7E92E26E9F22E0EE732E3432E1315B3
:1027C00009F457C0812E912C489CC001499C900D62
:1027D00011249C012A5A3C4F5901C9010E944D28DD
:1027E000562E672E782EC92E2D2D3E2D4F2D502F73
:1027F0000E94553C18164CF42D2D3E2D4F2D502F78
:102800006D2D7E2D8F2D902F08C0252D362D472D17
:102810005C2D652D762D872D9C2D0E94953CF50114
:10282000668B778B808F918F489CC001499C900D5F
:1028300011249C012A5A3C4F7901F90182A093A0EE
:10284000A4A0B5A0A501940166897789808D918D9A
:102850000E94553C18162CF4F701868A978AA08EA0
:10286000B18E1F5F103109F410E0D52C73010C2DCF
:10287000A6CF8D2D9E2DAF2DB02F80932D0290933E
:102880002E02A0932F02B09330020E944A2580911D
:102890005503809354030E94E128109135071123BA
:1028A00009F459C08FB7F894109235078FBF9091F3
:1028B0003C0110FF02C084E601C0892F11FD865F34
:1028C00012FD8A5013FD8F5F14FD8150893C08F082
:1028D00088EC8A3008F48AE09817D1F080933C01A4
:1028E0008091320181110DC04091A4015091A50148
:1028F0006091A6017091A7018091A2010E9499198F
:1029000005C08091360188608093360110923E01A7
:102910008091320115FF0DC0803159F490913D0135
:10292000911102C092E003C090FF03C094609093A5
:102930003D01107C81F0882311F0887361F01091C3
:10294000A10116FF02C01F7B01C01064812F0E94ED
:1029500041281093A101809132018C7F49F00E949F
:10296000911D06C080E48093320148CE80E218CEEB
:10297000AE960FB6F894DEBF0FBECDBFDF91CF91FC
:102980001F910F91FF90EF90DF90CF90BF90AF908D
:102990009F908F907F906F905F904F903F900895A1
:1029A000CF92DF92EF92FF921F93CF93DF930E941B
:1029B000201180913401882309F4FEC00E94C028B0
:1029C000009771F4C091A2018091A101C82BC09021
:1029D000A401D090A501E090A601F090A7010EC03F
:1029E000FC01C189C0732D9B02C020E401C020E01E
:1029F000C22BFC01C6A4D7A4E0A8F1A8809189014C
:102A000081FF03C080E20E94E31CDC2FD07311E041
:102A1000C07C80913401882309F4CEC090913301A9
:102A20009111CAC080FFC5C090913201292F207C2E
:102A300009F474C082FD12C010923D0140E050E0E4
:102A4000BA0180E00E94991980E00E94412880919B
:102A500034018D7F846080933401ABC09038E1F401
:102A600088EB92E00E94C31081E292E00E94C310C2
:102A70000E940A1140E050E0BA0180E00E949919DA
:102A800080E00E9441280E94491680913301811103
:102A900093C00E942011F9CF903419F48F7D809358
:102AA00034018091340183FF84C09091A201992365
:102AB000C1F081FD16C08091890181FF06C080911F
:102AC00036018860809336010CC0B701A6018D2FB6
:102AD0000E94991941E060E070E080E890E40E9473
:102AE0002E2A8091A101882371F08091340181FD0B
:102AF0000AC08C2F0E94412841E060E070E080E82D
:102B00009FE30E942E2A8091340181FD52C0806192
:102B10008093340182E00E94051D4BC080913D01ED
:102B20008823C9F181FF0DC08091A2018823B1F0F3
:102B300040E050E0BA0180E00E94991910933D01F5
:102B400038C08C70B1F18091A20181110AC08091CE
:102B50003D0183FF03C082E00E94051D10923D01EC
:102B600028C088EB92E00E94C3108AE292E00E94A3
:102B7000C3100E940A118091890181FF06C08091D3
:102B80003601886080933601E2CFB701A6018D2F10
:102B90000E949919DCCF8091360183FF0AC0B701EA
:102BA000A6018D2F0E94991980913601877F80930D
:102BB00036010E9420112DCFDF91CF911F91FF9000
:102BC000EF90DF90CF9008950E94C80F0E94D0141C
:102BD00080913301811108C00E94C028892BB1F770
:102BE00080913201883091F308958093B300811170
:102BF00004C08091B0008F7703C08091B0008068DE
:102C00008093B000089530917501632F2091760173
:102C1000422F932F917030FD94E0822F817020FD20
:102C200080E261FD986041FD806462FD906142FD3B
:102C3000806890932C0380932D0310922A031092A6
:102C40002B0333FF03C080E180932A0323FF03C0DB
:102C500088E080932B0308951F920F920FB60F9276
:102C600011248F939F938BB190912C039C71837E41
:102C7000892B8BB988B190912A0390718F7E892B13
:102C800088B915BC9F918F910F900FBE0F901F9028
:102C900018951092B60280916F008D7F80936F001F
:102CA00080918100887F81608093810010922E0343
:102CB00080917701909132018F3F39F42091330751
:102CC000211103C0903871F402C0943059F090E0A3
:102CD000009741F0EFE9FFE03197F1F700C0000005
:102CE0000197F6CF08951F920F920FB60F921124FD
:102CF0002F933F934F935F936F937F938F939F9304
:102D0000AF93BF93EF93FF9380912E03811144C241
:102D10008BB190913E03907E8F71892B8BB988B1D6
:102D2000909140039870877F892B88B98BB1837EFF
:102D300090913D03892B8BB988B18F7E90913F0391
:102D4000892B88B980913C0386BD82E085BD81E0F6
:102D500080932E0378948091520390915303892B92
:102D600009F0C1C0809177069091A206981709F4E6
:102D7000A6C0E09177062E2F30E087E0E89FF001B3
:102D80001124E858F94FF0935303E09352038281E2
:102D900093819093890080938800808191819093A2
:102DA0004E0380934D03E48180914F038E1761F1B0
:102DB000E0934F0383E1E89FF0011124ED55F94FB3
:102DC000F0935103E093500384859585A685B785DC
:102DD000B695A79597958795809337039093380379
:102DE000A0933903B0933A03809333039093340351
:102DF000A0933503B093360380932F039093300351
:102E0000A0933103B0933203E0915003F09151034A
:102E1000908980912D03892780933E039189809129
:102E20002B0389278093400387E0829FD001839FF3
:102E3000B00D1124A858B94F15968C911597408163
:102E4000518162817381082E04C0769567955795EC
:102E500047950A94D2F740934103509342036093FD
:102E60004303709344034481558166817781082E22
:102E700004C076956795579547950A94D2F7409385
:102E8000450350934603609347037093480340857E
:102E900051856285738504C07695679557954795EA
:102EA0008A95D2F74093490350934A0360934B03AA
:102EB00070934C0316968C910E94F51514C00E94D5
:102EC0004916E0915003F09151038289882339F02B
:102ED0001092B3008091B0008F778093B00084E0AF
:102EE0000E94051D59C1809131018130B1F486B134
:102EF000807290911801891781F0109231018CE055
:102F0000E9E1F1E0A5E2B1E001900D928A95E1F7E7
:102F10008091320780648093320710923D031092B3
:102F20003F0340912F035091300360913103709122
:102F300032038091410390914203A0914303B091E9
:102F40004403840F951FA61FB71F80932F039093F0
:102F50003003A0933103B0933203E0915003F0911A
:102F600051034485558566857785481759076A0753
:102F70007B0768F524E020933D03448555856685ED
:102F80007785841B950BA60BB70B80932F0390932B
:102F90003003A0933103B09332032089809119014B
:102FA00090911A01A0911B01B0911C0125FF04C052
:102FB0000197A109B10903C00196A11DB11D80931C
:102FC000190190931A01A0931B01B0931C01409129
:102FD000330350913403609135037091360380912F
:102FE000450390914603A0914703B0914803840F95
:102FF000951FA61FB71F8093330390933403A093AC
:103000003503B09336034485558566857785481723
:1030100059076A077B0790F520913D0328602093AC
:103020003D0320E120933F034485558566857785E0
:10303000841B950BA60BB70B80933303909334033B
:10304000A0933503B0933603208980911D019091A0
:103050001E01A0911F01B091200126FF04C001971D
:10306000A109B10903C00196A11DB11D80931D01E5
:1030700090931E01A0931F01B0932001409137034C
:10308000509138036091390370913A03809149035C
:1030900090914A03A0914B03B0914C03840F951F6C
:1030A000A61FB71F8093370390933803A09339036B
:1030B000B0933A0344855585668577854817590747
:1030C0006A077B0778F520913D03206120933D033B
:1030D0004485558566857785841B950BA60BB70BB4
:1030E0008093370390933803A0933903B0933A0346
:1030F00020898091210190912201A0912301B0911A
:10310000240127FF04C00197A109B10903C001965A
:10311000A11DB11D8093210190932201A093230151
:10312000B093240180913201843071F490913D0379
:1031300080913801892380933D0390913F038091D2
:103140003901892380933F0380914D0390914E0371
:10315000019790934E0380934D03892B69F410924D
:10316000530310925203809177068F5F8093770606
:10317000863011F41092770690913D0380912C03D4
:10318000892780933D0390913F0380912A038927EB
:1031900080933F0310922E03FF91EF91BF91AF9167
:1031A0009F918F917F916F915F914F913F912F915F
:1031B0000F900FBE0F901F90189581E08093B6027C
:1031C000EFE2F3E080912C03868780917401880FF1
:1031D000845081958587EFE6F0E08081826080836E
:1031E00008954F925F926F927F928F929F92AF92CB
:1031F000BF92CF92DF92EF92FF926B017C018090A1
:10320000850190908601A0908701B0908801409040
:103210008101509082016090830170908401A3012C
:103220009201C501B4010E94553C87FF19C060910D
:103230003C0170E080E090E00E94E73A2AE037ED40
:1032400043E25CE30E94953CA70196010E94953CF5
:103250006B017C01A30192010E94553C87FD0AC0CD
:1032600040924001509241016092420170924301AC
:103270008FEF47C0A5019401C701B6010E94333A00
:103280001816E4F020E030E0A901C701B6010E9461
:10329000333A811109C010924001109241011092FD
:1032A0004201109243012DC0809240019092410151
:1032B000A0924201B092430181E023C0C09240013C
:1032C000D0924101E0924201F0924301A5019401A4
:1032D000C701B6010E943D39209126033091270392
:1032E00040912803509129030E94953C0E94223B63
:1032F00020E030E040E85FE30E943E390E94B63AA9
:10330000862FFF90EF90DF90CF90BF90AF909F906F
:103310008F907F906F905F904F900895E0EBF0E07A
:1033200080818F7780831092B5021092B4020C9442
:103330000F119091330191111EC081110BC0109299
:1033400040011092410110924201109243010E94EB
:103350008E190FC09091890191FF05C0803219F438
:1033600040E050E0BA01CB01BA010E94F1180E947E
:10337000F51510923E010895239A83E08093B000E2
:1033800084E08093B10020918501309186014091C5
:103390008701509188016091810170918201809133
:1033A0008301909184010E943D399B01AC0160E052
:1033B00070E08EE793E40E943D3A60932603709399
:1033C000270380932803909329030C948E196AE0B5
:1033D00080E090E00E94962745E550E064E471E0CB
:1033E00081E090E00C94B8270F931F93CF93C82FE0
:1033F0008B010E94E4152DE0C29FC00111244CE016
:1034000050E0B8019E5FCF911F910F910C94B827A7
:103410001F93CF93DF93182FEB018DE0189FB0011E
:1034200011247E5F4CE050E0CE010E94FD27892BE5
:1034300059F48CE0FE0111928A95E9F7BE01812FC3
:103440000E94F41980E001C081E0DF91CF911F91CB
:103450000895EF92FF920F931F93CF93DF93CDB711
:10346000DEB72C970FB6F894DEBF0FBECDBF182F76
:1034700080FF0BC085E5ECEBF3E0A4E4B1E0059040
:103480000D928A95E1F70E94E71911FF10C0CE0155
:1034900001967C018CE0F70111928A95E9F700E032
:1034A000B701802F0E94F4190F5F0830C9F712FF8F
:1034B00014C060E080E093E00E94962760E081E025
:1034C00093E00E94962760E081E593E00E949627B2
:1034D00060E082E593E00E94962713FF0AC060E057
:1034E0008EEA93E00E94962760E08FEA93E00E94C4
:1034F00096272C960FB6F894DEBF0FBECDBFDF9196
:10350000CF911F910F91FF90EF9008951F920F920E
:103510000FB60F9211242F933F934F935F936F93A6
:103520007F938F939F93AF93BF93EF93FF93E0911C
:10353000C600EE33E1F048F4E13299F0EC3399F053
:10354000E831F1F40E945D2A65C0EE35A1F0EE3756
:1035500021F0EF33A9F481E001C082E00E94051D53
:1035600059C088E0FBCF81E08093B50253C081E071
:103570008093B4024FC01092B5021092B4024AC0B8
:10358000E7FF37C08E2F90E0FC01E458F109ED31E0
:10359000F10508F03FC0E659FF4F0C94E03D80E292
:1035A000DDCF8091320185FF35C080E4D7CF81E047
:1035B0000DC082E00BC084E009C088E007C080E154
:1035C00005C080E203C080E401C080E80E94EC1CDA
:1035D00021C081E00BC082E009C084E007C088E020
:1035E00005C080E103C080E201C080E40E94E31CCA
:1035F00011C0A091B30281E08A0F813809F480E004
:103600009091B202891731F0B0E0AF5CBD4FEC93FE
:103610008093B302FF91EF91BF91AF919F918F91F2
:103620007F916F915F914F913F912F910F900FBEBE
:103630000F901F9018951F920F920FB60F921124A2
:103640008F939F93EF93FF9380912503E82FF0E0F2
:10365000E854FD4F90819093C6008F5F8D3609F43A
:1036600080E0809325039091B702891305C0809173
:10367000C1008F7D8093C100FF91EF919F918F9149
:103680000F900FBE0F901F901895E091B70291E038
:103690009E0F9D3631F490E004C02091320724FD46
:1036A0000FC0209125032917C1F3F0E0E854FD4F26
:1036B00080839093B7028091C10080628093C100A3
:1036C0000895CF93C82F85EB93E00E94C3108C2FF1
:1036D0000E949D10CF910C94D210EF92FF920F9305
:1036E0001F93CF93DF936091740170E080E00E949C
:1036F000F6106091770170E081E00E94F610609111
:10370000750170E082E00E94F6106091760170E031
:1037100083E00E94F6106091890162FB662760F9E0
:1037200070E084E00E94F6106091890166FB6627D4
:1037300060F970E085E00E94F61080918901082E02
:10374000000C990B692F661F6627661F70E086E0E4
:103750000E94F6106091780170E08AE00E94F610F5
:103760004091790150917A0160917B0170917C01C7
:1037700023E08BE00E94D61040917D0150917E01A4
:1037800060917F017091800123E08CE00E94D6104F
:1037900060918901617070E08DE00E94F610609187
:1037A000890165FB662760F970E084E10E94F610EC
:1037B0006091890163FB662760F970E085E10E94F2
:1037C000F610609189016295617070E086E10E9457
:1037D000F61060918A0170E087E10E94F610409136
:1037E0008B0150918C0160918D0170918E0123E0CD
:1037F00088E10E94D61040918F0150919001609114
:1038000091017091920123E089E10E94D6106091AC
:103810009301709194018AE10E94F6104091950104
:1038200050919601609197017091980123E08BE18E
:103830000E94D610409181015091820160918301D4
:103840007091840120E08EE10E94D61040918501A4
:1038500050918601609187017091880120E08FE18D
:103860000E94D610609189016695617070E080E2D7
:103870000E94F610D4E6F12C04E411E083E0E82E77
:10388000ED0ECD2F82E0F81691F0E3E0FE16E9F0A0
:10389000F1E0FF1631F0F8014081518162817381BE
:1038A0001AC0F801448555856685778514C020E0E7
:1038B00030E041E655E4F801608D718D828D938D85
:1038C0000E943D3AAB01BC0106C0F80144A155A1DC
:1038D00066A177A1705823E08C2F0E94D6100C5F50
:1038E0001F4FCF5FEC12CECFD65FF394DC3821F6BA
:1038F000DF91CF911F910F91FF90EF90089581116B
:1039000003C08EE30C94451B0C94611BCF93DF9393
:10391000CCE3D7E08991882319F00E94451BFACFA8
:10392000DF91CF910895CF93DF9321E5829FC0016E
:103930001124EC01DD5F40E550E0BE018CE397E02F
:103940000E94FD27892B69F410923C070E94E41520
:1039500040E550E06CE377E0CE010E94B82780E0BC
:1039600001C081E0DF91CF910895CF93DF93C0E054
:103970008C2F0E94931C81110EC010923C078EE385
:103980000E94451B0E94861C8AE30E94451B87E01B
:103990000E94611B12C080913C07882371F00E9435
:1039A0001D02D82F8EE30E94451B0E94861C8AE3CD
:1039B0000E94451B8D2F0E947F1CCF5FC230C1F635
:1039C000DF91CF9108959FB7F89420913507822B0E
:1039D000809335079FBF08959FB7F89420913407CF
:1039E000822B809334079FBF08959FB7F8948093EC
:1039F00033079FBF08952FB7F894909132078095B1
:103A00008923809332072FBF08959FB7F8942091A0
:103A10003207822B809332079FBF08958F929F9227
:103A2000AF92BF92CF92DF92EF92FF920F931F93CC
:103A3000CF93DF93EB0124E4E22E21E0F22E8C0100
:103A40006B018CE0C80ED11C699179918991999193
:103A5000F70181909190A190B1907F010E94E73A87
:103A6000A50194010E943D3AF801619371938193FD
:103A700091938F01CC15DD0539F7DF91CF911F911F
:103A80000F91FF90EF90DF90CF90BF90AF909F90FD
:103A90008F9008951F920F920FB60F9211242F93BB
:103AA0003F934F935F936F937F938F939F93AF93C6
:103AB000BF93CF93EF93FF9386B18095982F977024
:103AC000F1F081FF02C0C2E001C0C0E080FDC16032
:103AD00082FF02C0C46002C0CC2389F0C0FD0E94F6
:103AE0005D2AC2FF05C08091320782608093320751
:103AF000C1FF05C080913207886080933207FF9133
:103B0000EF91CF91BF91AF919F918F917F916F91E5
:103B10005F914F913F912F910F900FBE0F901F908B
:103B200018952F923F924F925F926F927F928F9251
:103B30009F92AF92BF92CF92DF92EF92FF920F933C
:103B40001F93CF93DF93CDB7DEB7EC970FB6F89402
:103B5000DEBF0FBECDBF8091360180FD82C7909140
:103B6000770680913607981709F47BC7809139074B
:103B700090913A07892B09F01CC31091360112FF6E
:103B800009C08091760622E3289FC00111248A5A39
:103B90009C4F02C00E94C02890933A078093390737
:103BA0002090390730903A072114310409F459C79D
:103BB00000910307802F817000FF03C0109203075C
:103BC000F1C0909102079F5F953009F0892F809393
:103BD0000207E82EF12C33E13E9DF0013F9DF00DF0
:103BE0001124ED55F94FF0933807E0933707D101D1
:103BF00050969C91908B96FF0AC0B8E0B18BD10192
:103C0000E3E18E9FC001112420E030E002C0118A60
:103C1000F6CF4D915D916D917D91F901E80FF91FFE
:103C2000ED55F94F689412F8440F551F661F771F22
:103C30001694D1F740835183628373832C5F3F4F87
:103C40002C30310531F723E12E9DF0012F9DF00D31
:103C500011249F012D55394FF10184859585A68545
:103C6000B78543E0880F991FAA1FBB1F4A95D1F75C
:103C7000F90184879587A687B787D1011C966D9136
:103C80007D918D919C911F970E94E53A6093080762
:103C90007093090780930A0790930B07F101268D13
:103CA000378D40A151A10E943D3A9B01AC01609328
:103CB0000C0770930D0780930E0790930F0760E039
:103CC00070E080EA9FE30E943D3A60931007709392
:103CD0001107809312079093130710920407109214
:103CE0000507109206071092070711FD02C003FF97
:103CF0001FC0609121077091220780912307909146
:103D000024076093190770931A0780931B079093F9
:103D10001C079B01AC010E94953CD10152966D930A
:103D20007D938D939C935597077F009303070FC056
:103D3000F10162897389848995890E94343D609379
:103D4000190770931A0780931B0790931C07F3E1E0
:103D5000FE9DC001FF9D900D11249C012D55394FF2
:103D60007901D90152961C928091890181FF1AC074
:103D7000F101818985FF16C022A533A544A555A56B
:103D800060E070E080E89FE30E943D3A60932D0779
:103D900070932E0780932F0790933007E1E0D701AF
:103DA0005296EC931092150710921607109217076F
:103DB00010921807D1015A962D913D914D915C9129
:103DC0005D9729833A834B835C8360E070E080E0F9
:103DD0009FE30E943D3A4B015C01F101468C578CF8
:103DE00060A071A011FF4BC0F2E0F0931407D10165
:103DF0005296CD90DD90ED90FC905597A7019601DD
:103E00000E94953C9B01AC01C301B2010E943D3967
:103E10004B015C0120E030E0A9010E94333A87FFAA
:103E20001DC029813A814B815C81CA01B9010E9480
:103E30003E39A30192010E94953C9B01AC01C70150
:103E4000B6010E943D390E94343D60932107709372
:103E500022078093230790932407A8C18092150717
:103E600090921607A0921707B09218071092210798
:103E700010922207109223071092240797C11092E4
:103E800014074092250750922607609227077092E8
:103E9000280712FF0CC010922107109222071092DF
:103EA000230710922407C12CD12C760124C0E09165
:103EB0005503EF5FE03109F4E0E0809176068E175C
:103EC00059F0B2E3BE9FF0011124EA5AFC4FC288B8
:103ED000D388E488F58803C0C12CD12C7601C701B2
:103EE000B6010E94343D60932107709322078093AE
:103EF000230790932407C1010E944D28698B7A8B78
:103F00008B8B9C8B9B01AC010E94953C69877A87C7
:103F10008B879C87D10152962D913D914D915C915B
:103F200055972D833E834F8358870E94333A87FFEE
:103F30006CC029853A854B855C856D817E818F813A
:103F400098850E943D39A50194010E94953C9B01F2
:103F5000AC01C301B2010E943D3960932507709303
:103F60002607809327079093280720E030E0A901D7
:103F70000E94333A18163CF1B2E0B093140729813D
:103F80003A814B815C81CA01B9010E943E39A3018B
:103F900092010E94953C9B01AC016D817E818F81D5
:103FA00098850E943D390E94343D609321077093AB
:103FB000220780932307909324078091030788604A
:103FC00080930307F3C0A701960169857A858B85E5
:103FD0009C850E943D39A50194010E94953C609307
:103FE000290770932A0780932B0790932C07298920
:103FF0003A894B895C8920931D0730931E074093B3
:104000001F075093200733E0B6C0A70196016D81CA
:104010007E818F8198850E943D39A50194010E947F
:10402000953CA30192010E943E3920E030E040E03F
:104030005FE30E94953C6D877E878F87988B20E099
:1040400030E0A9010E94553C18160CF097C02D8550
:104050003E854F855889C301B2010E94553C181610
:104060000CF088C0A701960169857A858B859C85AF
:104070000E943D39A50194010E94953C9B01AC0131
:104080006093290770932A0780932B0790932C073E
:104090006D857E858F8598890E94553C1816CCF5D4
:1040A00089899A89AB89BC8980931D0790931E07E3
:1040B000A0931F07B09320072D813E814F81588523
:1040C00069857A858B859C850E94333A811104C06D
:1040D00091E0909314076AC02D813E814F815885ED
:1040E00069857A858B859C850E943D39A50194015F
:1040F0000E94953C9B01AC01C301B2010E943D3975
:1041000060932507709326078093270790932807CD
:104110004DC02D853E854F855889209325073093C6
:1041200026074093270750932807209329073093A9
:104130002A0740932B0750932C0729813A814B8102
:104140005C81CA01B9010E943E392D853E854F85AB
:1041500058890E94953CA70196010E943E390E9411
:10416000343D60931D0770931E0780931F07909343
:1041700020071CC032E03093140718C010922507A6
:104180001092260710922707109228078091210786
:1041900090912207A0912307B091240780931D07D7
:1041A00090931E07A0931F07B093200718601093E9
:1041B00036018091A206482F50E05A8B498B87E048
:1041C000849FF001859FF00D1124E858F94F8091EC
:1041D00002078483A0913907B0913A07BCAFABAF17
:1041E0005E96BC91BAA3EBADFCADF78DFBA3ABAD76
:1041F000BCAD9096BC91BCA3EBADFCADF1A1FDA311
:104200002091100730911107409112075091130728
:104210006AA17BA18B2F9F2F0E943D396EA77FA79C
:1042200088AB99AB20E030E0A9010E94333A87FFC8
:1042300004C01EA61FA618AA19AA20911D072E8B1E
:1042400030911E073F8B40911F07488F50912007E8
:10425000598F809125078A8F909126079B8FA09177
:104260002707AC8FB0912807BD8FE0911407ED8B25
:10427000F0912907FEA320912A072FA330912B0745
:1042800038A740912C0749A750911907598380916D
:104290001A078D8390911B079987A0911C07AD8702
:1042A000B0911507BAA7E0911607EBA7F091170791
:1042B000FCA7209118072DA7309121073BAB409117
:1042C00022074CAB509123075DAB809124078EAB46
:1042D0002EA13FA148A559A56A8D7B8D8C8D9D8D02
:1042E0000E94333A811103C092E09AAB02C0A1E070
:1042F000AAAB3AA02BA01CA10DA18EE3C82E83EC83
:10430000D82E8EE2E82E89E3F82E412C512C320172
:10431000CE8EDF8EE8A2F9A23D89313009F4F2C0D9
:10432000ABADBCAD313008F47BC0333009F020C1F7
:104330005A962D913D914D915C915D97C701B601C3
:104340000E94953C4B015C012E893F89488D598D17
:1043500069817D8189859D850E943D399B01AC01E4
:10436000C501B4010E94553C87FD31C02A8D3B8DAB
:104370004C8D5D8D6AA17BA18CA19DA10E943D39D0
:104380009B01AC010E943E396B017C0129813D817A
:1043900049855D856E897F89888D998D0E943E391A
:1043A0009B01AC01C701B6010E943D3A6B017C0143
:1043B000BE89B983EF89ED83F88DF987298D2D8723
:1043C0003A8C2B8C1C8D0D8D31E03D8B51C120E042
:1043D00030E040E05FE3C501B4010E94953C9B01E1
:1043E000AC0169817D8189859D850E943D39A70148
:1043F00096010E94953C9B01AC01632D722D812F8B
:10440000902F0E943D39362E272E182F092FA501F7
:10441000940169817D8189859D850E943D396DC0AA
:104420005A962D913D914D915C915D97C701B601D2
:104430000E94953C4B015C0120E030E040E05FE3EE
:104440000E94953C29813D8149855D850E943E39C8
:10445000A70196010E94953C9B01AC01632D722D32
:10446000812F902F0E943D39362E272E182F092F8D
:10447000262F372F482F592F6A8D7B8D8C8D9D8D40
:104480000E94553C18168CF52A8D3B8D4C8D5D8D08
:104490006AA17BA18CA19DA10E943D399B01AC0129
:1044A0000E943E396B017C0129813D8149855D85F2
:1044B0006E897F89888D998D0E943E399B01AC0160
:1044C000C701B6010E943D3A6B017C01BE89B983E8
:1044D000EF89ED83F88DF987298D2D873AA93D8BDA
:1044E0003A8C2B8C1C8D0D8DC3C0A5019401698164
:1044F0007D8189859D850E943E3969837D83898779
:104500009D87B6C02E893F89488D598DC701B60158
:104510000E94953C9B01AC01632D722D812F902F41
:104520000E943D395B014C019B01AC016EA17FA152
:1045300088A599A50E94553C18160CF095C02EA18F
:104540003FA148A559A5632D722D812F902F0E9460
:104550003D392E893F89488D598D0E943D3A6B0126
:104560007C013EA02FA018A509A542E04D8B80C07C
:104570005A962D913D914D915C915D97C701B60181
:104580000E94953C4B015C0129813D8149855D85F7
:104590000E94333A87FF39C020E030E040E05FE31B
:1045A000C501B4010E94953C9B01AC0169817D81EC
:1045B00089859D850E943D39A70196010E94953C01
:1045C0009B01AC01632D722D812F902F0E943D39EC
:1045D0006FAB78AF89AF9AAF2AA53BA54CA55DA577
:1045E0000E94553C18168CF4A501940169817D81C7
:1045F00089859D850E943D3969837D8389879D8753
:104600003FA828AC19AD0AAD33C02AA53BA54CA5DF
:104610005DA5632D722D812F902F0E943D399B0146
:10462000AC010E943E396B017C0129813D814985A5
:104630005D856BA97CA98DA99EA90E943E399B012D
:10464000AC01C701B6010E943D3A6B017C01BBA9D8
:10465000B983ECA9ED83FDA9F9872EA92D873AA48A
:104660002BA41CA50DA504C03A2C2B2C182D092D0C
:10467000A7019601C301B2010E943E392B013C0102
:104680002E8D3F8D48A159A10E94333A87FF07C064
:10469000A30192016E8D7F8D88A199A11CC02EA5CA
:1046A0003FA548A959A9632D722D812F902F0E94F3
:1046B000553C181624F52EE333EC4EE259E36E8D8B
:1046C0007F8D88A199A10E943E396E8F7F8F88A32C
:1046D00099A3A30192010E943D396B017C01232D16
:1046E000322D412F502F6AA57BA58CA59DA50E9438
:1046F000333A87FD11CE3D893093140703C04D89AD
:104700004093140789819D81A985BD8580931907F0
:1047100090931A07A0931B07B0931C07E0913707EB
:10472000F09138079289911104C08091360183FF7E
:104730003FC0ABADBCAD51968C915197807349F1A0
:104740009E96CD90DD90ED90FC90D1979923D1F07D
:1047500020912D0730912E0740912F07509130075F
:104760006091190770911A0780911B0790911C079F
:104770000E94953C9B01AC01C701B6010E94953C8B
:104780006B017C01C701B6010E94F11880933107CB
:104790000AC0109240011092410110924201109201
:1047A00043011092310780913601877F8093360153
:1047B00047E029893A89429FF001439FF00D112477
:1047C000E858F94FFA87E98780913107868320916D
:1047D0000C0730910D0740910E0750910F07632D84
:1047E000722D812F902F0E94953C69837A838B8351
:1047F0009C830E941C3A6B017C01609108077091B8
:10480000090780910A0790910B070E941C3A4B01FF
:104810005C01A70196010E943D390E94B63A6D8362
:104820007E838F839887ED81FE81A985BA85ED937C
:10483000FC93EF2B41F48091360181FF04C081602D
:10484000809336010EC120910407309105074091F5
:10485000060750910707C301B2010E943E392B01A0
:104860003C0129813A814B815C81C501B4010E94E0
:104870003D399B01AC01C301B2010E943D3A4B019D
:104880005C0120EC31EE44E65EE40E94953C0E941F
:104890001C3A0E94B63A603D37E0730781059105E6
:1048A00060F4A7E049895A89A49FF001A59FF00D03
:1048B0001124E858F94F158253C0603ABFE07B07D6
:1048C0008105910560F447E029893A89429FF0010A
:1048D000439FF00D1124E858F94F51E011C06034A6
:1048E000AFE17A078105910568F447E029893A89A3
:1048F000429FF001439FF00D1124E858F94F52E018
:1049000055830CC027E0A989BA892A9FF0012B9F03
:10491000F00D1124E858F94F33E03583A7E04989B9
:104920005A89A49FF001A59FF00D1124E858F94F72
:104930002581022E04C096958795779567950A94F0
:10494000D2F74D815E8102C0440F551F2A95E2F7D0
:10495000518340836115710551E08507910568F425
:1049600027E0A989BA892A9FF0012B9FF00D112415
:10497000E858F94F7383628304C04FEF5FEF5383AE
:104980004283809136078093A2068F5F863019F0AC
:104990008093360702C010923607E0913907F091F4
:1049A0003A07832D922DA12FB02F868F978FA0A32A
:1049B000B1A3C0920807D0920907E0920A07F092CB
:1049C0000B0729813A814B815C81C701B6010E94A6
:1049D0003D39A50194010E94953C609304077093B2
:1049E00005078093060790930707209115073091DC
:1049F00016074091170750911807632D722D812FCC
:104A0000902F0E94333A8111AAC820E030E0A9011A
:104A1000632D722D812F902F0E94553C909136016D
:104A2000181614F092FF04C091609093360119C0DB
:104A300010923A07109239079091550380917606AB
:104A4000891709F48CC881E0890F803109F480E06E
:104A500020915403921302C0809354038093550312
:104A60007EC8EC960FB6F894DEBF0FBECDBFDF91C7
:104A7000CF911F910F91FF90EF90DF90CF90BF905B
:104A8000AF909F908F907F906F905F904F903F90EE
:104A90002F900895CF93DF93C0913907D0913A07B3
:104AA0002097C9F08091030781608093030760918C
:104AB000190770911A0780911B0790911C079B01A1
:104AC000AC010E94953C6A8B7B8B8C8B9D8B1092EA
:104AD0003A0710923907DF91CF910895CF93DF9372
:104AE0000E94491680E3E2E0F7E0DF011D928A951B
:104AF000E9F7CFE2D3E085E2FE0111928A95E9F76A
:104B000010923A0710923907109277061092A20677
:104B100081E08093360710922E030E940316809145
:104B20002D038F878BB1837E90912C03892B8BB9BA
:104B30008BB18F7190912D03892B8BB980912B03B1
:104B4000898B88B18F7E90912A03892B88B988B18F
:104B5000877F90912B03892B88B9DF91CF9108959E
:104B60001F920F920FB60F9211240F931F932F9342
:104B70003F934F935F936F937F938F939F93AF93E5
:104B8000BF934091100150911101609112017091F9
:104B90001301809102019091030100910401109191
:104BA00005012091060130910701401B510B620B5A
:104BB000730B092E000CAA0BBB0B84179507A607D5
:104BC000B70708F05FC08091B402882301F180919B
:104BD000760182FF05C05F9A25E32A95F1F704C0AC
:104BE0005F9885E38A95F1F700005C9A25E32A95A2
:104BF000F1F700005C988091210190912201A09131
:104C00002301B09124010196A11DB11D23C0809103
:104C1000B502882339F18091760182FF05C05F9843
:104C200085E38A95F1F704C05F9A25E32A95F1F7A9
:104C300000005C9A85E38A95F1F700005C9880910A
:104C4000210190912201A0912301B09124010197AB
:104C5000A109B1098093210190932201A09323011E
:104C6000B09324018091100190911101A091120143
:104C7000B09113018093040190930501A093060164
:104C8000B09307018091080190910901A0910A0158
:104C9000B0910B010897A105B10508F485C080917A
:104CA000B602882309F465C0319B15C01092B40286
:104CB0001092B50280910C0190910D01A0910E010E
:104CC000B0910F018093140190931501A0931601E8
:104CD000B09317014EC080910C0190910D01A091ED
:104CE0000E01B0910F014091140150911501609196
:104CF000160170911701841B950BA60BB70B893B0E
:104D00009B40A105B105A8F180910001909101019E
:104D10004F9778F180910001909101012091130249
:104D2000309114020A978217930788F4809100014A
:104D30009091010120911302309114020A962817D4
:104D4000390728F41092B4021092B50212C02091D3
:104D50001302309114028091000190910101821799
:104D6000930720F481E08093B50203C081E0809333
:104D7000B402109208011092090110920A011092D7
:104D80000B0180910C0190910D01A0910E01B09149
:104D90000F010196A11DB11D80930C0190930D018F
:104DA000A0930E01B0930F018FED8093B20017BA5C
:104DB0008091100190911101A0911201B091130105
:104DC00083589F4FAF4FBF4F8093100190931101B5
:104DD000A0931201B09313018091080190910901F1
:104DE000A0910A01B0910B010196A11DB11D809304
:104DF000080190930901A0930A01B0930B01BF91A0
:104E0000AF919F918F917F916F915F914F913F9162
:104E10002F911F910F910F900FBE0F901F9018951B
:104E20001F920F920FB60F9211242F938F939F937F
:104E3000809178002091790090E0922B9093140259
:104E4000809313029F918F912F910F900FBE0F901F
:104E50001F9018951F920F920FB60F9211242F9347
:104E60003F934F935F936F937F938F939F93AF93F2
:104E7000BF93EF93FF9380913201813049F080918D
:104E80003307811105C00E945D2A81E00E94F51C54
:104E9000FF91EF91BF91AF919F918F917F916F9112
:104EA0005F914F913F912F910F900FBE0F901F90E8
:104EB000189593B196718091890186FD02C086E1B3
:104EC0009827992349F091FB882780F992FD826009
:104ED000907119F08C60089580E00895EBE6F0E0A1
:104EE0008081897E8083E8E6F0E080818E7F808308
:104EF000089584B1897E84B985B1866185B9809130
:104F0000890183FF0BC080916B00866180936B00E9
:104F10008091680081608093680008950C946E27EA
:104F200069E171E081EB91E00C940E1DF894F99920
:104F3000FECF92BD81BD81E08FBB80B58627482F13
:104F4000082E000C550B262F30E024233523232B6D
:104F500039F06F3F19F060BD84E006C084E104C001
:104F6000882321F060BD84E28FBBF99A789408957C
:104F70009F92AF92BF92CF92DF92EF92FF920F93E8
:104F80001F93CF93DF935C018A017B01E40EF51E32
:104F9000EB01912C6C01C61AD70ACE018C0D9D1D18
:104FA000CE15DF0589F0911008C0292D990C330B1F
:104FB000232F221F2227221F01C021E06991922E58
:104FC000960E0E949627E9CF692DC501800F911F8B
:104FD000DF91CF911F910F91FF90EF90DF90CF90D5
:104FE000BF90AF909F900C949627F999FECF92BDF9
:104FF00081BD81E08FBB80B508959F92AF92BF9233
:10500000CF92DF92EF92FF920F931F93CF93DF9394
:105010005B018A017C01E40EF51EEC01912C6B0111
:10502000C81AD90AC6018C0F9D1FCE15DF0589F05D
:105030000E94F527911008C0292D990C330B232FBE
:10504000221F2227221F01C021E0982E920E899351
:10505000E9CFC501800F911F0E94F52721E030E0C4
:10506000981611F020E030E0C901DF91CF911F9137
:105070000F91FF90EF90DF90CF90BF90AF909F90F7
:10508000089590913301911107C086FF02C02D9AB7
:1050900001C02D9810923E010895BF92CF92DF92E9
:1050A000EF92FF920F931F93CF93DF937C01FC014C
:1050B00002A513A5D4A5C5A5818980FF18C060915C
:1050C0003B0170E080E090E00E94E73A2AE037ED93
:1050D00043E25CE30E94953C9B01AC01B8018D2F3B
:1050E0009C2F0E94953C8B01D82FC92F2DC082FD8B
:1050F00017C060913A0170E080E090E00E94E73ACA
:105100002AE037ED43E25CE30E94953C9B01AC0151
:10511000B8018D2F9C2F0E94953C8B01D82FC92F51
:10512000F701B6A0C7A0D0A4F1A42B2D3C2D4D2D86
:105130005F2DB8018D2F9C2F0E94553C181624F42A
:105140000B2D1C2DDD2DCF2D20E030E040E85FE35E
:10515000B8018D2F9C2F0E94553C181624F000E0BA
:1051600010E0D0E8CFE3B8018D2F9C2FDF91CF91D5
:105170001F910F91FF90EF90DF90CF90BF90089517
:105180008091550390917606981739F022E3829F1B
:10519000C00111248A5A9C4F089580E090E0089540
:1051A0008CE1E5E1F2E0DF011D928A95E9F71092CA
:1051B00055031092760681E080933B0710925403CA
:1051C00008952F923F924F925F926F927F928F92AB
:1051D0009F92AF92BF92CF92DF92EF92FF920F9386
:1051E0001F93CF93DF93C0917606C11101C0C0E138
:1051F000C150D0915403DC1709F41DC1EC2EF12CE1
:1052000022E3C29F800111240A5A1C4FF801A6888C
:10521000B788C08CD18C628D738D848D958D9B01E8
:10522000AC010E943E39F801268D378D40A151A175
:105230000E94953C4B018C019B01AC01B501C6015C
:105240000E94333A87FD02C05401680182E38E9DBB
:10525000F0018F9DF00D1124EA5AFC4FC501D601D3
:10526000828B938BA48BB58BC11101C0C0E1C1505F
:10527000DC1761F022E32E9DC0012F9D900D1124BB
:105280009C012A5A3C4F7901D2E333C080915503E7
:10529000D81360C00E944A255DC0AC2EB12CDA9DA7
:1052A000C001DB9D900D1124FC01EA5AFC4F6F01F7
:1052B000C11101C0C0E1C150809155038C1302C0DF
:1052C0000E944A25DA9D8001DB9D100D11240A5AA7
:1052D0001C4FF80186889788A08CB18CA501940199
:1052E00062897389848995890E94333A811106C045
:1052F000760180915403C813D0CF2CC0F801628D81
:10530000738D848D958D9B01AC010E943E39F8010F
:10531000268D378D40A151A10E94953CF70122892D
:105320003389448955890E943E392B013C019B01F8
:10533000AC01C501B4010E94553CF80118162CF4CB
:10534000428A538A648A758AD3CF828A938AA48ACE
:10535000B58ACECFD0915403F2E3DF9F80011124B0
:105360000A5A1C4FC1E0CD0FC03109F4C0E02090B3
:10537000760682E3382EC21509F45BC0CC2ED12C00
:105380003C9CC0013D9C900D11249C012A5A3C4F2D
:105390007901F8014288538864887588F901828808
:1053A0009388A488B588A5019401C301B2010E9425
:1053B000333A87FF24C0F801628D738D848D958DFB
:1053C0009B01AC010E943E39F801268D378D40A12A
:1053D00051A10E94953CA30192010E943E392B01EC
:1053E0003C019B01AC01C501B4010E94553C18165B
:1053F00034F4F701428A538A648A758ADC2F3C9C14
:10540000F0013D9CF00D1124EA5AFC4F26893789A2
:10541000408D518D62897389848995890E94333AC0
:10542000811101C0DC2FCF5FC03109F4C0E08701DA
:10543000A2CFD0935403DF91CF911F910F91FF9092
:10544000EF90DF90CF90BF90AF909F908F907F9024
:105450006F905F904F903F902F9008951F93CF9340
:10546000DF93142F20E030E040EA51E40E94953CA5
:105470000E941C3A0E94B63AEB012097D1F080912D
:105480003301811116C0111103C00E94D01406C04F
:105490000E9420118091340181FD0BC02FEF80E725
:1054A00092E0215080409040E1F700C00000219739
:1054B000E4CFDF91CF911F9108958091320784FD51
:1054C0001CC080E10E94051D0E948E192D989091AC
:1054D0003201892F8C7221F480913601867069F037
:1054E000943031F480913307811105C086E001C00A
:1054F00083E00E94F51C0C94491608958F929F92A8
:10550000AF92BF92CF92DF92EF92FF920F931F93D1
:10551000CF93DF937C016B01DC01CC91D0E0FE01E5
:10552000E45CF84F80818D3229F4EF01229681816D
:1055300001E009C08B3219F0C35CD84F03C0EF0102
:105540002296818100E0912CF0E010E020E030E034
:10555000A9015E01E0EDE80FEA30D0F4FF5FF93019
:1055600098F491101150A5E0B0E00E94E63DDC01F6
:10557000CB01880F991FAA1FBB1F9C01AD012E0FE5
:10558000311D411D511D0AC0911008C01F5F06C08A
:10559000EE3F41F4911006C0992493942196D501D1
:1055A0008C91D7CFFF2309F44FC0CA01B9010E94E3
:1055B000E53A4B015C0120E030E0A9010E94333A5A
:1055C000882349F11F3F64F42AE037ED43E25CE3AE
:1055D000C501B4010E94953C4B015C011E5FF2CFF6
:1055E0001F3F59F42DEC3CEC4CEC5DE3C501B401DC
:1055F0000E94953C4B015C010EC0112361F020E03C
:1056000030E040E251E4C501B4010E94953C4B01F9
:105610005C011150F2CF002351F0B7FAB094B7F803
:10562000B094F60180829182A282B38206C0D60134
:105630008D929D92AD92BC921397CC53D740C1509E
:10564000F701C08381E001C080E0DF91CF911F911D
:105650000F91FF90EF90DF90CF90BF90AF909F9011
:105660008F900895CF93DF93CDB7DEB76B970FB6CA
:10567000F894DEBF0FBECDBF109214011092150139
:10568000109216011092170180917C008F7D8093FB
:105690007C0080917C00806480937C0080917C0001
:1056A000807F80937C0080917C00886080937C0068
:1056B00080917A00806880937A0080917A0080627D
:1056C00080937A0080917B00887F80937B0080911B
:1056D0007A00876080937A0080917A008860809356
:1056E0007A00789480917A00806480937A00109296
:1056F000B10082E88093B20017BA81E08093700015
:105700001092B00085E08093B100109210011092C9
:105710001101109212011092130110920C011092BB
:105720000D0110920E0110920F01109208011092BB
:10573000090110920A0110920B01109204011092BB
:1057400005011092060110920701109203011092B8
:1057500002013998419A80917C00807F80937C007F
:1057600080917A00806480937A008091C00082608A
:105770008093C0001092C50080E18093C4008091A6
:10578000C10088698093C10080E090E00E94F52705
:105790008A3009F0F6C545E550E061E070E084E448
:1057A00091E00E94FD27892B09F4EBC58AB18C6139
:1057B0008AB98AB1806E8AB93C9A3B9A80918100FD
:1057C0008F7E80938100809181008860809381002A
:1057D000809180008C7F80938000809180008F700A
:1057E0008093800080916E00887F80936E0014BC4F
:1057F00015BC80916E00816080936E008CE0E9E1C1
:10580000F1E0DF011D928A95E9F778941092320158
:105810008091890184FF03C081E0809332013E01C1
:10582000B6E06B0E711C6E01EDE0CE0ED11C8091C6
:10583000320192E1A2E3B1E01D929A95E9F78093DB
:10584000320184E680933A0180933B0180933C01CE
:105850008CE0E5E2F1E011928A95E9F710923101CE
:1058600010923207109233071092340710923507C6
:105870008091B3028093B20280E4E9E9F1E0DF01B4
:105880001D928A95E9F76DEB71E080E00E94081A9D
:10589000811103C087E00E94611B0E94BC19259AF8
:1058A0002D980E9479273D98459A80E00E94D00F5C
:1058B0000E94D0280E946E250E940F110E949027FE
:1058C0008AE591E00E94C310289820914C01309104
:1058D0004D0140914E0150914F0160E074E284E728
:1058E00099E40E943D3A2DEC3CEC4CE45EE30E94CE
:1058F0003D3A0E94B63A7093030160930201809191
:10590000890183FF11C00E945927882369F081E033
:105910008093320188EB92E00E94C31087E592E009
:105920000E94C3100E940A1180913201817871F0A7
:1059300088EB92E00E94C31082E992E00E94C310BB
:105940000E940A1181E08093320133C0109232012B
:105950000E94B51C2EC05201410180949094A094E5
:10596000B094681579058A059B0581F08CE092E07A
:105970000E94C310ECE3F7E01192CF018C539740E3
:105980002A8D3B8D82179307BCF310E00E94D01440
:105990008091330181114BCFE12FF0E0E45CF84FAF
:1059A0001082902F9170F92E00FF95C08BE00E941D
:1059B000611B10E000E09091B2028091B302981355
:1059C00009C00E94C80F0E94D0148091330188231F
:1059D00091F32DCFE92FF0E0EF5CFD4F80819F5FC9
:1059E000913809F490E09093B2028F3F51F38A30DE
:1059F00019F08D3009F09FC4ACE3B7E0E0E0F0E0CF
:105A0000212F30E03B8F2A8F8A8D9B8DE817F90775
:105A10000CF0BCCF8D918A3209F05BC0E45CF84F8A
:105A20001082D601EA2EEC183196CF018C539740A4
:105A30002A8D3B8D8217930724F480818D931082E9
:105A4000F1CFF12CF601EE0DFF1D1082C6010E9470
:105A5000F938F6019F012C193D092E153F0514F464
:105A60001192F8CFECE3F7E001900020E9F79F01F5
:105A700021503109ECE3F7E022242A94322C210151
:105A80002E173F0709F467CF4191842E440F9908E0
:105A9000AA08BB08282439244A245B2448E050E0A3
:105AA00052014101B694A7949794879420FE0BC0AD
:105AB00014012501A8E72A26ABE33A26A6EF4A26D9
:105AC000A2E85A2602C0140125014150510941F7AC
:105AD000D7CF319699CF80913C07882309F469CFBD
